:200000000C945E060C948B060C948B060C948B060C948B060C948B060C948B060C948B0685
:200020000C948B060C948B060C948B060C948B060C948B060C9454130C9460130C941913E5
:200040000C948B060C943E170C948B060C948B060C948B060C948B060C948B060C94DA40CB
:200060000C948B060C9494420C948B060C948B060C948B060C948B060C948B060C948B06B3
:200080000C948B060C948B060C948B060C948B060C94C9420C948B060C948B060C948B065E
:2000A0000C948B060C948B060C948B060C948B060C948B060C948B060C948B060C948B06B8
:2000C0000C948B060C948B060C948B060C94FE420C948B060C948B060C9433430C948B0604
:2000E0000C948B062000200020002000200020004D54454D503A0024F404D9201BC40C5CF6
:200100000E9804C4095F0265077101F405F900FB04B30048048700C10369005803550003D2
:20012000034500BE023A008402310053022A002902250004022000E4011C00C8011900AF3F
:200140000117009801140084011300710110006101100051010E0043010D0036010B002B30
:20016000010B0020010B00150109000C01090003010800FB000800F3000800EB000700E432
:20018000000600DE000600D8000600D2000600CC000500C7000500C2000500BD000400B9E1
:2001A000000400B5000400B1000400AD000400A9000400A5000300A20003009F0004009BE4
:2001C000000300980003009500020093000300900003008D0002008B000300880002008694
:2001E00000020084000300810002007F0002007D0002007B0002007900020077000100760D
:200200000002007400020072000100710002006F0002006D0001006C0002006A000100695F
:20022000000200670001006600010065000100640002006200010061000100600001005F9C
:200240000002005D0001005C0001005B0001005A00010059000100580001005700010056C9
:20026000000100550001005400010053000000530001005200010051000100500001004FE6
:200280000001004E0000004E0001004D0001004C0001004B0000004B0001004A00010049FA
:2002A000000100480000004800010047000100460000004600010045000000450001004408
:2002C000000100430000004300010042000000420001004100000041000100400001003F0E
:2002E0000000003F0001003E0000003E0001003D0000003D0001003C0000003C0000003C12
:200300000001003B0000003B0001003A0000003A000100390000003900010038000000380D
:20032000000000380001003700000037000100360000003600000036000100350000003508
:200340000000003500010034000000340000003400010033000000330000003300010032FE
:200360000000003200000032000100310000003100000031000100300000003000000030F4
:200380000001002F0000002F0000002F0000002F0001002E0000002E0000002E0001002DE7
:2003A0000000002D0000002D0000002D0001002C0000002C0000002C0000002C0001002BD9
:2003C0000000002B0000002B0000002B0001002A0000002A0000002A0000002A00010029C9
:2003E0000000002900000029000000290000002900010028000000280000002800000028B8
:200400000000002800010027000000270000002700000027000000270001002600000026A3
:20042000000000260000002600000026000100250000002500000025000000250000002590
:2004400000000025000100240000002400000024000000240000002400010023000000237B
:20046000000000230000002300000023000000230000002300010022000000220000002266
:20048000000000220000002200000022000100210000002100000021000000210000002150
:2004A000000000210000002100010020000000200000002000000020000000200000002039
:2004C00000000020000000200001001F0000001F0000001F0000001F0000001F0000001F21
:2004E0000000001F0001001E0000001E0000001E0000001E00000024F4D43050C38E20C2C5
:20050000A24017828B7011127A910D816CD90AA861E108C7586607615143061E4B5D05C155
:2005200045A7041A411104093D9803713931034036DB0265339102D4305402802E1D026394
:200540002CEE01752AC501B028A001102781018F2564012B244B01E0223401AC211F018D84
:20056000200D01801FFC00841EED00971DDF00B81CD200E61BC600201BBC00641AB200B24A
:2005800019A8000A19A0006A189900D117910040178B00B516840031167E00B31579003AD2
:2005A000157300C7146F0058146A00EE1366008813630025135E00C7125B006C125700157A
:2005C000125400C111510070114F0021114B00D61049008D1047004610440002104200C084
:2005E0000F4000800F3E00420F3C00060F3B00CB0E3800930E37005C0E3500270E3400F31E
:200600000D3200C10D3100900D3000600D2E00320D2D00050D2C00D90C2B00AE0C29008512
:200620000C29005C0C2700350C27000E0C2600E80B2400C40B2400A00B23007D0B23005A71
:200640000B2100390B2100180B2000F80A1F00D90A1E00BB0A1E009D0A1D00800A1D0063F3
:200660000A1C00470A1B002C0A1B00110A1A00F7091A00DD091900C4091900AB0919009204
:200680000917007B091800630917004C09160036091600200916000A091500F5081500E002
:2006A000081400CC081400B8081400A4081400900813007D0812006B081300580812004622
:2006C00008120034081100230811001208110001081100F0071000E0071000D0071000C08D
:2006E000071000B0070F00A107100091070E0083070F0074070F0065070E0057070E00496D
:20070000070E003B070D002E070E0020070D0013070D0006070D00F9060C00ED060D00E0D2
:20072000060C00D4060C00C8060C00BC060C00B0060C00A4060B0099060C008D060B0082D7
:20074000060B0077060B006C060B0061060A0057060B004C060A0042060A0038060A002E86
:20076000060A0024060A001A060A001006090007060A00FD050900F4050900EB050900E2ED
:20078000050900D9050900D0050900C7050900BE050900B5050800AD050800A50509009C1A
:2007A000050800940508008C050800840508007C050800740508006C050700650508005D10
:2007C000050700560508004E050700470507004005080038050700310507002A05070023D6
:2007E0000507001C050600160507000F0507000805060002050700FB040600F5040700EE75
:20080000040600E8040600E2040700DB040600D5040600CF040600C9040600C3040600BDF5
:20082000040600B7040600B1040500AC040600A6040600A00405009B040600950405009051
:200840000406008A04050085040500800406007A04050075040500700405006B040500668F
:20086000040500610405005C04050057040500520405004D04050048040500430405003EB4
:200880000404003A04050035040500300404002C04050027040400230405001E0404001AC7
:2008A00004040016040500110404000D040400090405000404040000040400FC030400F8C2
:2008C000030400F4030400F0030400EC030400E8030400E4030400E0030400DC030400D8B0
:2008E000030400D4030400D0030400CC030400C8030300C50303006F6B0D0A005265736553
:200900006E643A006F6B0D0A004572726F723A204E6F204C696E65204E756D6265722077F1
:2009200069746820636865636B73756D2C204C617374204C696E653A004572726F723A20D9
:200940004E6F20436865636B73756D2077697468206C696E65206E756D6265722C204C6141
:200960007374204C696E653A002E204C696E653A004572726F723A20636865636B73756DE7
:20098000206D69736D617463682C204C617374204C696E653A0053657269616C2045727276
:2009A0006F723A204C696E65204E756D626572206973206E6F74204C617374204C696E6522
:2009C000204E756D6265722B312C204C617374204C696E653A00556E6B6E6F776E20636F8E
:2009E0006D6D616E643A0D0A00467265652052616D3A2000205A3A0020593A0041646468A5
:200A00006F6D6520583A000D0A007A5F6D696E3A00795F6D61783A00785F6D696E3A004583
:200A20003A005A3A00593A00583A000D0A0030303030303030302D303030302D3030303052
:200A40002D303030302D303030303030303030303030004649524D574152455F4E414D455F
:200A60003A20537072696E746572204578706572696D656E74616C2050524F544F434F4C25
:200A80005F56455253494F4E3A312E30204D414348494E455F545950453A4D656E64656CC3
:200AA0002045585452554445525F434F554E543A310D0A00453A005A3A00593A00583A0001
:200AC0006F6B200020423A00543A00543A0020423A0020403A006F6B20543A00202F200037
:200AE000506C616E204275666665722053697A653A00467265652052616D3A2000537465B4
:200B0000707065722054696D657220696E69740D0A00506C616E6E657220496E69740D0A77
:200B200000536F66742050574D20496E69740D0A0073746172740D0A000D0A00312E332E1E
:200B4000323254202F2032302E30382E3230313200537072696E7465720D0A0000002100F4
:200B6000240027002A002D003000330001010000040107010A0100002200250028002B00BC
:200B80002E003100340002010000050108010B01000020002300260029002C002F00320085
:200BA0000001000003010601090105050505070508080808020202020A0A080804040404A3
:200BC00001010101010101010303030303030303040707070C0C0C0C0C0C0C0C0202020274
:200BE00006060606060606060B0B0B0B0B0B0B0B01021020200808102040102040800201A7
:200C0000020108040201010204081020408080402010080402018004020180402010080441
:200C2000020108040201010204081020408001020408102040800000090A02080B0C0D075C
:200C4000060304010000000000000000000000000000000000000000000000000000000086
:200C60000000100F0E0000000000000000000000000000000000000000000000494E464921
:200C80004E4954594E414ECDCCCC3D0AD7233C17B7D13877CC2B329595E6241FB14F0A007D
:200CA0000020410000C84200401C4620BCBE4CCA1B0E5AAEC59D74004B14334411241FBE88
:200CC000CFEFD1E2DEBFCDBF00E00CBF15E0A0E0B2E0E2E1F6E900E00BBF02C007900D9284
:200CE000A83BB107D9F71BBE1FE0A8EBB5E001C01D92A73EB107E1F71CE0CCEBDCE004C071
:200D00002297FE010E94F84AC83BD107C9F70E9403450C94074B0C940000A0E3B0E0E3E941
:200D2000F6E00C94BF4AA8E04E010894811C911CF401BA2F1192BA95E9F729833A834B8390
:200D40005C836D837E838F839887CE010996FC011192AA95E9F7A986BA86CB86DC86ED86D0
:200D6000FE860F87188B29813A814B815C812DA73EA74FA758AB79018A018FEF9FEFA0E065
:200D8000B0E0E822F9220A231B231A014424552429853A854B855C8529A73AA74BA75CA773
:200DA00059016A01A822B922CA22DB223A0188249924C601B501A80197010E943C4A6DA346
:200DC0007EA38FA398A7C401B3010E943C4A69A37AA38BA39CA3C601B501A20191010E94F6
:200DE0003C4A7B018C01C401B3010E943C4A5B016C0189A19AA1ABA1BCA18E0D9F1DA01FD6
:200E0000B11F89A39AA3ABA3BCA32DA13EA14FA158A5CA01AA27BB2729A13AA14BA15CA146
:200E2000280F391F4A1F5B1F29A33AA34BA35CA32E153F054007510740F480E090E0A1E0FF
:200E4000B0E0A80EB91ECA1EDB1E89A19AA1ABA1BCA19D01442755272A0D3B1D4C1D5D1D8F
:200E60002D8F3E8F4F8F58A36C01BB24AA248DA19EA1AFA1B8A5A070B070A80EB91ECA1E37
:200E8000DB1EA98EBA8ECB8EDC8E9A8C8B8C7C8C9E8D6F8D78A1FE01719688E0DF011D9295
:200EA0008A95E9F72D8B9E8B6F8B788F2D853E854F8558896DA57EA58FA598A90E943C4A55
:200EC0007B018C012D813E814F81588569A57AA58BA59CA50E943C4AE60EF71E081F191FC1
:200EE0006D897E898F89988D6E0D7F1D801F911F6D8B7E8B8F8B988FEE892A2D392D482D67
:200F0000572D7E2F8F89988DE096E2E10C94DB4AEF92FF920F93DF93CF93CDB7DEB76097CD
:200F20000FB6F894DEBF0FBECDBFA82F002309F467C07E010894E11CF11C88E0F701119224
:200F40008A95E9F729833A834B835C836D837E83AF83988780E2801B4D815E816F817885A3
:200F6000E82FFF27E7FDF0951816B4F0DB01CA01BB0F880B982FDC018D879E87AF87B88B9F
:200F8000882799278E1B9F0B04C075956795579547958A95D2F728C0202F332727FD30959B
:200FA000DB01CA01022E04C0B595A795979587950A94D2F78D879E87AF87B88B04C0440F98
:200FC000551F661F771FEA95D2F789819A81AB81BC8104C0B695A795979587952A95D2F791
:200FE000482B592B6A2B7B2B49875A876B877C8729853A854B855C856D857E85AF859889B1
:201000008A2F60960FB6F894DEBF0FBECDBFCF91DF910F91FF90EF900895A2E7B0E0E3E1E2
:20102000F8E00C94BF4A982E892E712E88E0FE013196DF01682E1D926A94E9F729833A8379
:201040004B835C836D837E839F829887FE013996DF011D928A95E9F7A986BA86CB86DC8634
:20106000ED86FE860F87188B8D819E81AF81B885B7FD07C0E1961CAE1DAE1EAE1FAEE1970E
:2010800064C0219581E0121608F080E0319591E0131608F090E0B32FB81B81E03B1708F06D
:2010A00080E0982B419531E0141608F030E0A42FA91B81E04A1708F080E0382B519591E089
:2010C000151608F090E0F52FF31B81E05F1708F080E0982B619531E0161608F030E0E62F09
:2010E000E91B81E06E1708F080E0382B719541E0171608F040E0572F531B81E0751708F006
:2011000080E0482B892D819591E0181608F090E0682E641A462D31E0861508F030E0932B30
:20112000882D8195891B2983BA83AB83FC83ED835E834F8388872FEF3FEF4FEF5FEFE19629
:201140002CAF3DAF4EAF5FAFE1978D859E85AF85B889B7FF6AC0E1964CAD5DAD6EAD7FADFA
:20116000E1974095509560957095E1964CAF5DAF6EAF7FAFE197A19481E01A1408F080E0E6
:20118000B19491E01B1408F090E06B2D681B81E0B61608F080E0982BC19421E01C1408F021
:2011A00020E05C2D591B81E0C51608F080E0282BD19491E01D1408F090E04D2D421B81E0A4
:2011C000D41608F080E0982BE19421E01E1408F020E03E2D391B81E0E31608F080E0282BA6
:2011E000F19491E01F1408F090E07F2D721B272F81E0F71608F080E0982B019511E0101699
:2012000008F010E0802F891B982F81E0091708F080E0182B872D8195811BA9866A875B8748
:201220004C873D872E879F87888B99812A813B814C815D816E817F81A885B9851A850B8574
:20124000FC84ED84DE84CF84B88888E0E1E18E2E912C8C0E9D1EF401682E11926A94E9F7A4
:20126000998B2A8B3B8B4C8B5D8B6E8B7F8BA88F9E01275E3F4FF90111928A95E9F7B98F40
:201280001A8F0B8FFC8EED8EDE8ECF8EB8A2298C3A8C4B8C5C8CED8CFE8C0F8D18A1698860
:2012A0007A888B889C8821966CAE7DAE8EAE9FAE21976D887E888F88988CE114F104010592
:2012C000110509F0D9C3621473048404950408F057C100E0201600E0300601E0400600E012
:2012E000500688F41FEF211631044104510439F030F048E0E42EF12C012D112D18C0EE2412
:20130000FF24870114C020E0221620E0320620E0420621E0520630F038E1E32EF12C012DA8
:20132000112D05C020E1E22EF12C012D112DD201C1010E2C04C0B695A795979587950A9410
:20134000D2F7835F9D4FDC012C9180E290E0A0E0B0E08E199F09A00BB10B7C018D01E21ABD
:20136000F10801091109E114F10401051105D1F10E2C04C0220C331C441C551C0A94D2F7D5
:20138000A40193010E2C04C0220F331F441F551F0A94D2F780E290E08E199F0921966CAC65
:2013A0007DAC8EAC9FAC219704C096948794779467948A95D2F7622A732A842A952A219683
:2013C000ACACBDACCEACDFAC219704C0AA0CBB1CCC1CDD1CEA94D2F72196ACAEBDAECEAE1E
:2013E000DFAE21976201EE24FF242996CCAEDDAEEEAEFFAE299792018101207030702D963B
:201400000CAF1DAF2EAF3FAF2D97C401B301A70196010E946E4A7B018C01C401B301299663
:201420002CAD3DAD4EAD5FAD29970E946E4AC901DA013C014D01C401B3012D962CAD3DAD99
:201440004EAD5FAD2D970E943C4A9B01AC018701FF24EE242196ACACBDACCEACDFAC21975E
:20146000C601AA27BB2757016801A82AB92ACA2ADB2AA216B306C406D506E0F40894610894
:20148000710881089108A20CB31CC41CD51CA214B304C404D50470F0A216B306C406D506DF
:2014A00048F408946108710881089108A20CB31CC41CD51CA21AB30AC40AD50AC601B5015F
:2014C00029962CAD3DAD4EAD5FAD29970E946E4A7B018C01C601B50129962CAD3DAD4EAD66
:2014E0005FAD29970E946E4AC901DA015C016D01C601B5012D962CAD3DAD4EAD5FAD2D9788
:201500000E943C4A9B01AC018701FF24EE2421968CAD9DADAEADBFAD2197A070B070E82AA2
:20152000F92A0A2B1B2BE216F30604071507C0F40894A108B108C108D108E20CF31C041D83
:20154000151DE214F3040405150550F0E216F3060407150728F40894A108B108C108D10835
:20156000D3019927882786017501E82AF92A0A2B1B2B2596ECAEFDAE0EAF1FAF2597EBC485
:20158000211431044104510471F461E070E080E090E020E030E040E050E00E946E4AC901FD
:2015A000DA011C012D0100E0201600E0300601E0400600E0500688F41FEF21163104410441
:2015C000510431F028F048E050E060E070E017C040E050E060E070E012C020E0221620E0D4
:2015E000320620E0420621E0520628F048E150E060E070E004C040E150E060E070E0D20199
:20160000C101042E04C0B695A795979587950A94D2F7835F9D4FDC012C91E0E2EE2EF12C79
:20162000012D112DD801C701841B950BA60BB70B821B9109A109B1090097A105B10561F408
:2016400064015301A218B308C408D50831E0632E712C812C912C24C1E3968FAFE397082EBE
:2016600004C0220C331C441C551C0A94D2F7EE2DE81B640153010E2E04C0D694C794B7940A
:20168000A7940A94D2F7A4019301E3960FACE39704C0220F331F441F551F0A94D2F7219685
:2016A0006CAC7DAC8EAC9FAC21970E2E04C096948794779467940A94D2F784017301E22AF5
:2016C000F32A042B152BE9AEFAAE0BAF1CAF320188249924920181012070307061960CAF27
:2016E0001DAF2EAF3FAF6197C601B501A40193010E946E4A7B018C01C601B501A40193018C
:201700000E946E4AC901DA0165968CAF9DAFAEAFBFAF6597BC01CD0161962CAD3DAD4EAD41
:201720005FAD61970E943C4A9B01AC018701FF24EE24A9ACBAACCBACDCACC601AA27BB2743
:201740005C016D01AE28BF28C02AD12AA216B306C406D50660F565966CAD7DAD8EAD9FADEC
:201760006597615070408040904065966CAF7DAF8EAF9FAF6597A20CB31CC41CD51CA214AF
:20178000B304C404D50498F0A216B306C406D50670F4615070408040904065966CAF7DAFBC
:2017A0008EAF9FAF6597A20CB31CC41CD51CA21AB30AC40AD50AC601B501A40193010E94D6
:2017C0006E4A7B018C01C601B501A40193010E946E4AC901DA013C014D01C401B301619698
:2017E0002CAD3DAD4EAD5FAD61970E943C4A9B01AC018701FF24EE2489AD9AADABADBCADBB
:20180000A070B07057016801A82AB92ACA2ADB2AA216B306C406D506E0F4089461087108C1
:2018200081089108A20CB31CC41CD51CA214B304C404D50470F0A216B306C406D50648F478
:2018400008946108710881089108A20CB31CC41CD51C21968CAD9DADAEADBFAD2197E39668
:201860000FACE39704C0880F991FAA1FBB1F0A94D2F721968CAF9DAFAEAFBFAF2197A21A99
:20188000B30AC40AD50A6596ECACFDAC0EAD1FAD6597D70199278827682A792A8A2A9B2A2A
:2018A00082012227332769960CAF1DAF2EAF3FAF6997A2019101407050706D962CAF3DAF42
:2018C0004EAF5FAF6D97C601B50169962CAD3DAD4EAD5FAD69970E946E4A7B018C01C60189
:2018E000B50169962CAD3DAD4EAD5FAD69970E946E4AC901DA01A1968CAF9DAFAEAFBFAFE1
:20190000A197BC01CD016D962CAD3DAD4EAD5FAD6D970E943C4A9B01AC018701FF24EE2405
:201920002196ACACBDACCEACDFAC2197C601AA27BB2757016801A82AB92ACA2ADB2AA216D1
:20194000B306C406D50660F5A1966CAD7DAD8EAD9FADA1976150704080409040A1966CAF58
:201960007DAF8EAF9FAFA197A20CB31CC41CD51CA214B304C404D50498F0A216B306C40659
:20198000D50670F46150704080409040A1966CAF7DAF8EAF9FAFA197A20CB31CC41CD51C88
:2019A000A21AB30AC40AD50AC601B50169962CAD3DAD4EAD5FAD69970E946E4A7B018C0158
:2019C000C601B50169962CAD3DAD4EAD5FAD69970E946E4AC901DA015C016D01C601B5017A
:2019E0006D962CAD3DAD4EAD5FAD6D970E943C4A9B01AC018701FF24EE2421968CAD9DADAE
:201A0000AEADBFAD2197A070B070E82AF92A0A2B1B2BE216F30604071507C0F40894A10856
:201A2000B108C108D108E20CF31C041D151DE214F3040405150550F0E216F3060407150793
:201A400028F40894A108B108C108D108A196ECACFDAC0EAD1FADA197D701992788279601B5
:201A60008501082B192B2A2B3B2B25960CAF1DAF2EAF3FAF259772C26E147F04800691068F
:201A800008F45FC220E0E21620E0F20621E0020720E0120788F43FEFE316F1040105110562
:201AA00031F028F048E050E060E070E017C040E050E060E070E012C040E0E41640E0F40648
:201AC00040E0040741E0140728F048E150E060E070E004C040E150E060E070E0D801C70158
:201AE000042E04C0B695A795979587950A94D2F7835F9D4FDC012C9130E2A32EB12CC12CA5
:201B0000D12CD601C501841B950BA60BB70B821B9109A109B1090097A105B10599F4E61464
:201B2000F7040805190508F4FEC121966CAC7DAC8EAC9FAC2197621473048404950408F089
:201B4000F2C1FFC1E2968FAFE297082E04C0EE0CFF1C001F111F0A94D2F76A2D681BD20131
:201B6000C101062E04C0B695A795979587950A94D2F75C016D01AE28BF28C02AD12AADAAB1
:201B8000BEAACFAAD8AE72016101E2960FACE29704C0CC0CDD1CEE1CFF1C0A94D2F7C9AAC9
:201BA000DAAAEBAAFCAA64015301062E04C0D694C794B794A7940A94D2F7D401C301E296F2
:201BC0000FACE29704C0880F991FAA1FBB1F0A94D2F72196ECACFDAC0EAD1FAD219704C0B9
:201BE00016950795F794E7946A95D2F737014801682A792A8A2A9B2A6DA67EA68FA698AAF3
:201C0000EDA8FEA80FA918AD3801882499249801870120703070A5960CAF1DAF2EAF3FAF8C
:201C2000A597C601B501A40193010E946E4A7B018C01C601B501A40193010E946E4AC90175
:201C4000DA011C012D01C201B101A5962CAD3DAD4EAD5FADA5970E943C4A9B01AC018701AF
:201C6000FF24EE24ADA4BEA4CFA4D8A8C601AA27BB2757016801A82AB92ACA2ADB2AA216E8
:201C8000B306C406D50600F508942108310841085108EDA8FEA80FA918ADAE0CBF1CC01E26
:201CA000D11EAE14BF04C006D10670F0A216B306C406D50648F408942108310841085108C1
:201CC000AE0CBF1CC01ED11EA21AB30AC40AD50AC601B501A40193010E946E4A7B018C0163
:201CE000C601B501A40193010E946E4AC901DA013C014D01C401B301A5962CAD3DAD4EAD32
:201D00005FADA5970E943C4A9B01AC018701FF24EE248DA59EA5AFA5B8A9A070B07057019B
:201D20006801A82AB92ACA2ADB2AA216B306C406D50600F5089461087108810891086DA9CB
:201D40007EA98FA998ADA60EB71EC81ED91EA616B706C806D90670F0A216B306C406D506DD
:201D600048F408946108710881089108A60EB71EC81ED91ED601C501821B930BA40BB50BDA
:201D800089A79AA7ABA7BCA7D1019927882764015301A82AB92ACA2ADB2A2596ACAEBDAEF5
:201DA000CEAEDFAE2597860175012FEF3FEF40E050E0E222F32204231523A601662777277B
:201DC000AD964CAF5DAF6EAF7FAFAD97A9A8BAA8CBA8DCA86FEF7FEF80E090E0A622B72243
:201DE000C822D92289A99AA9ABA9BCA91D0144245524C801B701A60195010E943C4AA996AC
:201E00006CAF7DAF8EAF9FAFA997C801B701A20191010E943C4A3B014C01AD966CAD7DADC3
:201E20008EAD9FADAD97A60195010E943C4A7B018C01AD966CAD7DAD8EAD9FADAD97A20175
:201E400091010E943C4A5B016C01A8019701260D371D481D591DA9966CAC7DAC8EAC9FAC57
:201E6000A997C401AA27BB27280F391F4A1F5B1F2E153F054007510748F4E12CF12C61E06B
:201E8000062F112DAE0CBF1CC01ED11ECA01AA27BB27BC01CD016A0D7B1D8C1D9D1D69A4E5
:201EA0007AA48BA49CA4661677068806990650F1661577058805990509F04DC0D90199276C
:201EC0008827A9962CAD3DAD4EAD5FADA99740705070820F931FA41FB51F21962CAD3DAD46
:201EE0004EAD5FAD2197E2960FACE29704C0220F331F441F551F0A94D2F7281739074A0722
:201F00005B0748F525960CAD1DAD2EAD3FAD2597015010402040304025960CAF1DAF2EAFD1
:201F20003FAF259718C066247724430121E030E040E050E025962CAF3DAF4EAF5FAF25970C
:201F40000DC066247724430125961CAE1DAE1EAE1FAE259703C0662477244301FE01B19634
:201F600088E0DF011D928A95E9F72596ACACBDACCEACDFAC2597A9A2BAA2CBA2DCA26DA28D
:201F80007EA28FA298A622962FAD22973AA14BA15CA1662D7EA1DFA098A5E196ECACFDAC7B
:201FA0000EAD1FADE197E114F1040105110509F456C0219581E0121608F080E03195E1E0EB
:201FC000131608F0E0E0932E981A81E0391508F080E0E82B4195F1E0141608F0F0E0A42E28
:201FE000AE1A81E04A1508F080E0F82B5195E1E0151608F0E0E0B52EBF1A81E05B1508F0CF
:2020000080E0E82B6195F1E0161608F0F0E0A62FAE1B81E06A1708F080E0F82B7195E1E0D0
:20202000171608F0E0E0C72ECF1A81E07C1508F080E0E82B8D2D8195F1E0181608F0F0E0E9
:20204000D82EDE1AE1E08D1508F0E0E0FE2B892F8195392DA5016A2F7C2D982F9F1B8D2DE7
:20206000CE58DF4FE2E10C94DB4AA0E0B0E0EBE3F0E10C94C54AEC015B016115710519F0E8
:20208000FB0191838083F9908F2D90E00E94FC4A892BC9F7FDE2FF1621F4F990EE24E39401
:2020A00005C02BE2F21609F4F990EE248E0101501040C8016CE77CE043E050E00E94C4123B
:2020C000892B01F58E010E5F1F4FC8016FE77CE045E050E00E94C412892B19F48E01095FEC
:2020E0001F4FA114B10419F0F50111830083E0FC04C070E090E080E814C070E090E080E82E
:202100006FEF08C1C80164E87CE043E050E00E94C412892B69F4A114B10429F470E090E004
:2021200080EC6FE7F7C02296F501D183C083F6CF8824992440E050E060E070E0EF2DE05384
:20214000EA30A0F5F2E0EF2A8E2D90E09C0128703070E2FE06C0232B79F50894811C911C9D
:202160002BC0232B19F0089481089108DB01CA0112E0880F991FAA1FBB1F1A95D1F7480F06
:20218000591F6A1F7B1F440F551F661F771F4E0F511D611D711D483929E9520729E9620784
:2021A00029E1720748F084E0E82A06C0EE3F31F4E3FC39C098E0E92AF990C0CFE53311F042
:2021C000E53189F529912D3219F4E0E1EE2A05C02B3219F081E090E003C0299182E090E021
:2021E000E22FE053EA3018F0C81BD90B1CC020E030E0FCE020383F075CF4C901880F991FE3
:20220000880F991F280F391F220F331F2E0F311DE991E053EA3068F3E4FE03C03095219590
:202220003F4F820E931ECE2CDD24E1FE07C0A114B10421F02197F501D183C083CB01BA01E7
:202240000E9446487B018C01F3E0CF22DD2423E0C216D10421F417FB109517F910955701F7
:202260006801C801B70120E030E040E050E00E94A947882309F44AC097FE0DC02BE9E22E4A
:202280002CE0F22E9094819491089394C0E2D0E000E010E012C093EBE92E9CE0F92EF6CF28
:2022A000F7012591359145915491C601B5010E9481495B016C018C1A9D0A8C169D0684F730
:2022C000D595C7950F5F1F4F0630110529F08CEF9FEFE80EF91EF1CFC501D6017C018D0179
:2022E0008C2D880F8D2D881F8F3F51F0C601B50120E030E040E050E00E94A947882331F4DF
:2023000082E290E09093E60F8093E50F7E2D9F2D802F612F272F392F482F562FB901CA01D5
:20232000CDB7DEB7ECE00C94E14A2F923F925F926F927F928F929F92AF92BF92CF92DF92A2
:20234000EF92FF920F931F93CF93DF938C011B01EA016115710519F0FB01918380832097F0
:2023600049F0CE010297839728F020E030E040E050E0F6C0F801A1908F018A2D90E00E94F1
:20238000FC4A892BB9F7FDE2AF1631F4F801A1908F015524539407C0FBE2AF1619F4F80141
:2023A000A1908F015524209719F0C031D105C1F4F0E3AF1679F4F8018081883711F088352B
:2023C00049F4F801A1800E5F1F4FF2E05F2AC0E1D0E006C0209721F480E3A816E9F427C0A8
:2023E000C830D10531F1C930D10524F4C230D10531F50CC0CA30D10589F0C031D105F9F44F
:20240000C12CD12CE12CB8E0FB2E28C0C12CD12CE12CA0E4FA2E22C0CAE0D0E0FCECCF2E58
:20242000FCECDF2EFCECEF2EFCE0FF2E17C0C8E0D0E0C12CD12CE12CE0E1FE2E0FC09E0118
:20244000442737FD4095542F60E070E080E090E80E946E4AC901DA016C017D0120E030E023
:2024600040E050E060E03E01882477FC8094982C70EDB72EBA0CE9E0EB1570F48A2D8154D5
:202480008A3118F499ECB92E06C08A2D81568A3150F589EAB82EBA0C8B2D90E08C179D0727
:2024A00014F56F3FE1F0C216D306E406F506B0F0CA01B901A40193010E943C4A9B01AC012F
:2024C0002B0D311D411D511D2130F0E03F07F0E04F07F0E85F0710F461E001C06FEFF80182
:2024E000A1908F01C5CF2114310481F0662331F001501040F1011183008308C051FE1AC067
:2025000002501040F1011183008314C067FF12C050FC05C02FEF3FEF4FEF5FE704C020E05F
:2025200030E040E050E882E290E09093E60F8093E50F16C050FE08C050954095309521951F
:202540003F4F4F4F5F4F0CC057FF0AC082E290E09093E60F8093E50F2FEF3FEF4FEF5FE7F2
:20256000B901CA01DF91CF911F910F91FF90EF90DF90CF90BF90AF909F908F907F906F90F0
:202580005F903F902F900895FB01DC014150504088F08D9181341CF08B350CF4805E65913C
:2025A00061341CF06B350CF4605E861B611171F3990B0895881BFCCFFC018191861721F039
:2025C0008823D9F7992708953197CF010895FB0151915523A9F0BF01DC014D9145174111D6
:2025E000E1F759F4CD010190002049F04D9140154111C9F3FB014111EFCF81E090E0019748
:20260000089581E087BB85E08093B1001092B000E0E7F0E080818160808390E89093B30035
:202620008081826080839093B40080818460808308951F920F920FB60F9211248F93809138
:20264000E805863010F080E001C08F5F8093E805882339F48091CE05823018F02F9A2C9AC3
:2026600003C02F982C9880EC8093B3008091E105823060F0809102018064809302018091C2
:20268000E1058E3F40F48091E10506C0809102018F7B8093020180E88093B4008F910F9074
:2026A0000FBE0F901F9018951F920F920FB60F9211242F982C980F900FBE0F901F90189573
:2026C0001F920F920FB60F9211248F938091E1058E3F20F080910201806403C08091020148
:2026E0008F7B809302018F910F900FBE0F901F901895EF92FF920F931F93E090ED05F090EB
:20270000EE0500E010E060E07EEC8FEF9FEFA80197010E94904A3093DE052093DD0560E008
:2027200072E380E090E0A80197010E94904A3093E0052093DF051F910F91FF90EF9008957D
:202740000F931F93CF93DF938C01EB0181E030C0DF01AA0FBB1FAA0FBB1FAC0FBD1F129642
:202760006D917C911397601771070CF53197EE0FFF1FEE0FFF1FEC0FFD1F228133810190B7
:20278000F081E02D021B130B8D919C918E1B9F0B621B730B9C01029FC001039F900D129FF8
:2027A000900D11240E945B4A6E0F7F1F16C08F5FE82FF0E0E417F5075CF2E417F50719F0F5
:2027C00060E070E00AC041505040440F551F440F551FC40FD51F688179812FEF33E0261BD4
:2027E000370BC901DF91CF911F910F910895CF93DF939B01CFEFD3E0C81BD90B81E031C016
:20280000DF01AA0FBB1FAA0FBB1FA20FB31F6D917C911197C617D7071CF53197EE0FFF1FCD
:20282000EE0FFF1FE20FF31F208131810280F381E02DC21BD30B12968D919C9113978E1B23
:202840009F0B621B730B9C01C29FC001C39F900DD29F900D11240E945B4A6E0F7F1F17C099
:202860008F5FE82FF0E0E417F50754F2E417F50719F060E070E00BC041505040440F551F03
:20288000440F551F240F351FF90162817381CB01DF91CF9108950F931F9380E09EEC60E062
:2028A00070E00E945B4A7093DE056093DD0580E092E360E070E00E945B4A7093E00560933F
:2028C000DF0507E713E085E090E0B8014BE250E00E94A0139093E3058093E2058EE591E00A
:2028E000B8014BE250E00E94A0139093E5058093E40585E090E063E274E044E150E00E94FF
:20290000A0139093E7058093E6051F910F9108952F923F924F925F926F927F928F929F9242
:20292000AF92BF92CF92DF92EF92FF920F931F93DF93CF93CDB7DEB728970FB6F894DEBF33
:202940000FBECDBF0E9422412091CA053091CB054091CC055091CD05621B730B840B950B89
:202960006B3F71058105910508F48EC00E9422416093CA057093CB058093CC059093CD055E
:2029800080917003823008F07FC080EF90E00E940A300E942241AB01BC0185E99FE02AE0AA
:2029A00030E00E94E34580917003882371F58EEE90E00E940A308091BC059091BD0567E7DD
:2029C00073E04BE250E00E94F713BC0185E99FE04AE050E00E9428468CEE90E00E940A30C1
:2029E0006091BA057091BB0585E99FE04AE050E00E9428468AEE90E00E940A306091DB057A
:202A00007091DC0585E99FE03BC088EE90E00E940A308091C0059091C10563E274E044E1AF
:202A200050E00E94F713BC0185E99FE04AE050E00E94284686EE90E00E940A308091BE0512
:202A40009091BF0563E274E044E150E00E94F713BC0185E99FE04AE050E00E94284684EE71
:202A600090E00E940A308091000185FF05C085E99FE06FEF70E004C085E99FE060E070E0D3
:202A80004AE050E00E947C460E9422412091C2053091C3054091C4055091C505621B730B32
:202AA000840B950B683C71058105910508F4CDC10E9422416093C2057093C3058093C405C1
:202AC0009093C5058DE00E9492412FEF33E0281B390B3093BD052093BC0580910D03909134
:202AE0000E038217930724F430930E0320930D0380910F03909110032817390724F4309332
:202B0000100320930F038091E2059091E3058217930744F01092B9051092B8051092BB0554
:202B20001092BA058091E4059091E5052817390744F01092B9051092B8051092BB051092B9
:202B4000BA05C90167E773E04BE250E00E94F7139A8389832091BA053091BB05281B390BA1
:202B600038872F833093DA052093D9058091D1059091D2059E838D83E981FA81F093D20562
:202B8000E093D105B901882777FD8095982F209155033091560340E050E00E943C4A20E098
:202BA00031E040E050E00E94904A3C832B833093D4052093D3053093DC052093DB052F81BD
:202BC00038852E3131050CF081C02091CF053091D0058F819885280F391F8091DD0590917B
:202BE000DE05281739074CF04091DF055091E005C901421753070CF4CA019093D005809369
:202C0000CF05FC01FF0FEE0BFE2F2090ED053090EE059C014E2F5E2F6E2F7E2F8E2F9E2FDF
:202C20005101CC24DD24EE24FF2400E010E00E948D06F72FB82FD92EF22E032F142FA52F9A
:202C4000E62F8B2F9D2DDD2064F5F22EFA94E1E0F21608F0E0E00E2F030FE1E0031708F034
:202C6000E0E01E2F140FE1E0141708F0E0E0AE2FA50FE1E0A51708F0E0E0EE2EE60EE1E0E9
:202C8000E61608F0E0E07E2F7F0FE1E07F1708F0E0E08E2F8B0F91E08B1708F090E0EE2D49
:202CA0009D0D2F2D302F412F5A2F6E2F08E00E948807C9013093D6052093D505EB81FC8122
:202CC0008E0F9F1F9093DC058093DB058F81988597FF03C0909581959F4F823591052CF486
:202CE00021E030E038872F8309C061E570E00E945B4ACB01E5E0F0E0F887EF838A3091050A
:202D00005CF069E070E00E945B4ACB012F8138852E5F3F4F38872F8304972CF08F819885DE
:202D2000019698878F8389819A81ED81FE818E1B9F0BFC01FF0FEE0BFE2F2090570330906B
:202D400058039C014E2F5E2F6E2F7E2F8E2F9E2F5101CC24DD24EE24FF2400E010E00E94B3
:202D60008D06EF81F885BE2FAA27FD01FF0FEE0BFE2F5D01CE2EDE2EEE2EFE2E0E2F1E2FAB
:202D80000E940D08C9013093D8052093D7052091DB053091DC05281B390B2F3F310519F01C
:202DA00014F02FEF30E037FF02C020E030E03093DC052093DB058091B8059091B905892B41
:202DC00019F02093CE0502C01092CE050E9422412091C6053091C7054091C8055091C905D2
:202DE000621B730B840B950B685873418040904060F10E9422416093C6057093C7058093AF
:202E0000C8059093C9058EE00E9492412FEF33E0281B390B3093C1052093C0058091BE0584
:202E20009091BF05281739073CF48091E6059091E7052817390724F4809102018F7D03C07B
:202E40008091020180628093020128960FB6F894DEBF0FBECDBFCF91DF911F910F91FF90B2
:202E6000EF90DF90CF90BF90AF909F908F907F906F905F904F903F902F9008951F920F92D0
:202E80000FB60F920BB60F9211246F927F928F929F92AF92BF92CF92DF92EF92FF920F93B9
:202EA0001F932F933F934F935F936F937F938F939F93AF93BF93CF93DF93EF93FF93809103
:202EC000A6089091A708892B09F05DC19091A4088091A508981719F4C0E0D0E014C080912D
:202EE000A50890E028E430E0829FE001839FD00D929FD00D1124C952D74FC95BDF4F81E061
:202F00008883C754D040D093A708C093A608209709F433C11092D1081092D2081092D3084C
:202F20001092D4082BAD3CAD3093D0082093CF0845E72133340718F020E335E704C05EE445
:202F40002132350730F0369527953695279584E007C067E22131360730F03695279582E0A8
:202F60008093CA0808C081E08093CA082032310510F420E230E0B9016052704088E06030AC
:202F80007807E8F0472F50E0440F551F440F551F49505F4F9A012E5F3F4FF9018591949174
:202FA0009C01AA27639FC001629F810D9A1F06948A1F9A1F1124FA01459154911EC0CB0107
:202FC000969587958C7F89509B4FFC0145915491FC01329625913491862F90E087709070C8
:202FE000BC01269FC001279F900D369F900D112403E0969587950A95E1F7481B590B4436A2
:20300000510510F444E650E0CA01A0E0B0E08093CB089093CC08A093CD08B093CE08509340
:203020008900409388002FA938AD75E72133370718F020E335E704C08EE42132380730F0F2
:20304000369527953695279584E007C097E22131390730F03695279582E08093CA0808C076
:2030600081E08093CA082032310510F420E230E0B90160527040E8E060307E07E8F0472F25
:2030800050E0440F551F440F551F49505F4F9A012E5F3F4FF901859194919C01AA27639FD0
:2030A000C001629F810D9A1F06948A1F9A1F1124FA01459154911EC0CB01969587958C7F24
:2030C00089509B4FFC0145915491FC01329625913491862F90E087709070BC01269FC001D6
:2030E000279F900D369F900D1124E3E096958795EA95E1F7481B590B4436510510F444E6A0
:2031000050E05093D6084093D50888899989AA89BB89B695A79597958795B095A0959095F6
:2031200081959F4FAF4FBF4F8093A8089093A908A093AA08B093AB088093AC089093AD086E
:20314000A093AE08B093AF088093B0089093B108A093B208B093B3088093B4089093B5084B
:20316000A093B608B093B7081092B8081092B9081092BA081092BB0806C080ED97E0909301
:20318000890080938800C091A608D091A708209709F4CDC388A18093BC081092BD0880FFD2
:2031A00039C0899A20E030E08CB190E065E0969587956A95E1F78170380F2F5F2A30A1F71B
:2031C00020E0363010F121E08091BE088823E9F088819981AA81BB81181619061A061B0614
:2031E000A4F480914306882319F42093BF080FC088899989AA89BB898093B8089093B9087B
:20320000A093BA08B093BB0802C01092BF082093BE0803C089981092BF088091BC0881FF6D
:2032200004C08F981092C00836C08F9A20E030E08091030190E0969587958170380F2F5F78
:203240002A30B1F720E0363010F121E08091C1088823E9F08C819D81AE81BF8118161906BF
:203260001A061B06A4F480914306882319F42093C0080FC088899989AA89BB898093B8089C
:203280009093B908A093BA08B093BB0802C01092C0082093C1088091BC0882FF3DC0809143
:2032A0000B018D7F80930B0120E030E089B190E043E0969587954A95E1F78170380F2F5F36
:2032C0002A30A1F720E0363010F121E08091C2088823E9F088859985AA85BB85181619064E
:2032E0001A061B06A4F480914306882319F42093C3080FC088899989AA89BB898093B80819
:203300009093B908A093BA08B093BB0802C01092C3082093C20807C080910B018260809349
:203320000B011092C3088091BC0883FF1BC01698E090A808F090A9080091AA081091AB084C
:20334000A090B008B090B108C090B208D090B3086090B4087090B5088090B6089090B70851
:2033600060E0E2C0169AE4CF88819981AA81BB81E80EF91E0A1F1B1F1E141F04100611068C
:20338000F4F48091BF082091C4083091C508882341F42115310519F02150304004C0889A46
:2033A00006C02F5F3F4F3093C5082093C40888899989AA89BB89E81AF90A0A0B1B0B8C8125
:2033C0009D81AE81BF812091AC083091AD084091AE085091AF08820F931FA41FB51F809379
:2033E000AC089093AD08A093AE08B093AF08181619061A061B067CF58091C0082091C60807
:203400003091C708882341F42115310519F02150304004C08E9A06C02F5F3F4F3093C70886
:203420002093C6088091AC089091AD08A091AE08B091AF08288939894A895B89821B930B2C
:20344000A40BB50B8093AC089093AD08A093AE08B093AF088E9888859985AA85BB85A80E05
:20346000B91ECA1EDB1E1A141B041C041D0414F58091C3082091C8083091C908882361F40E
:203480002115310519F02150304008C080910B01886080930B0106C02F5F3F4F3093C90874
:2034A0002093C80888899989AA89BB89A81AB90ACA0ADB0A80910B01877F80930B0188983F
:2034C0008C859D85AE85BF85680E791E8A1E9B1E161417041804190454F4149A888999892D
:2034E000AA89BB89681A790A8A0A9B0A14988091B8089091B908A091BA08B091BB0801962A
:20350000A11DB11D8093B8089093B908A093BA08B093BB08288939894A895B898217930710
:20352000A407B50730F46F5F8091CA0868170CF41BCFE092A808F092A9080093AA081093A9
:20354000AB08A092B008B092B108C092B208D092B3086092B4087092B5088092B60890924B
:20356000B7082091B8083091B9084091BA085091BB088C899D89AE89BF8982179307A407CA
:20358000B50708F4D1C0E090CB08F090CC080091CD081091CE08AC8CBD8CCE8CDF8CA8017F
:2035A0009701C601B501AA27279FB12D389FF001489FF00D479FE00DF11D289FB00DE11D72
:2035C000FA1F379FB00DE11DFA1F469FB00DE11DFA1F369FB10DEA1FFA1FB695EA1FFA1F4D
:2035E00011248BAD9CAD8E0F9F1F9093D0088093CF082FA938AD49AD5AADA0E0B0E02817CC
:2036000039074A075B0724F43093D0082093CF082091CF083091D00875E72133370718F063
:2036200020E335E704C08EE42132380730F0369527953695279584E007C097E2213139073F
:2036400030F03695279582E08093CA0808C081E08093CA082032310510F420E230E0B90116
:2036600060527040E8E060307E07E8F0472F50E0440F551F440F551F49505F4F9A012E5F90
:203680003F4FF901859194919C01AA27639FC001629F810D9A1F06948A1F9A1F1124FA01C2
:2036A000459154911EC0CB01969587958C7F89509B4FFC0145915491FC0132962591349198
:2036C000862F90E087709070BC01269FC001279F900D369F900D1124A3E096958795AA9578
:2036E000E1F7481B590B4436510510F444E650E050938900409388009A0140E050E080913A
:20370000CB089091CC08A091CD08B091CE08820F931FA41FB51F8093CB089093CC08A093DA
:20372000CD08B093CE08E2C0888D998DAA8DBB8D82179307A407B50708F0D0C06091D10853
:203740007091D2088091D3089091D4082C8D3D8D4E8D5F8DAA27639FB12D749FF001849F83
:20376000F00D839FE00DF11D649FB00DE11DFA1F739FB00DE11DFA1F829FB00DE11DFA1F7D
:20378000729FB10DEA1FFA1FB695EA1FFA1F11248091CF089091D0088E179F0728F4EF96C9
:2037A00028813981EF9703C09C012E1B3F0BEF96488159816A817B81EF97C901A0E0B0E0BE
:2037C00084179507A607B7070CF49A0175E72133370718F020E335E704C08EE421323807CF
:2037E00030F0369527953695279584E007C097E22131390730F03695279582E08093CA0877
:2038000008C081E08093CA082032310510F420E230E0B90160527040E8E060307E07E8F02B
:20382000472F50E0440F551F440F551F49505F4F9A012E5F3F4FF901859194919C01AA27B4
:20384000639FC001629F810D9A1F06948A1F9A1F1124FA01459154911EC0CB019695879585
:203860008C7F89509B4FFC0145915491FC01329625913491862F90E087709070BC01269FE4
:20388000C001279F900D369F900D112423E0969587952A95E1F7481B590B4436510510F4E1
:2038A00044E650E050938900409388009A0140E050E08091D1089091D208A091D308B091CA
:2038C000D408820F931FA41FB51F8093D1089093D208A093D308B093D40808C08091D50866
:2038E0009091D60890938900809388002091B8083091B9084091BA085091BB088889998925
:20390000AA89BB89281739074A075B0780F01092A7081092A6089091A4088091A5089817B3
:2039200031F08091A5088F5F8F708093A508FF91EF91DF91CF91BF91AF919F918F917F912B
:203940006F915F914F913F912F911F910F91FF90EF90DF90CF90BF90AF909F908F907F90F0
:203960006F900F900BBE0F900FBE0F901F901895A1E8B0E08C918F7E8C938C9188608C93F3
:20398000E0E8F0E080818D7F808380818E7F808380818F73808380818F7C80838C91887F35
:2039A00082608C9380E090E490938900809388001092850010928400EFE6F0E08081826016
:2039C000808381E08093750378940895EF92FF920F931F9356C0E114F10401051105D1F00C
:2039E0001092B9051092B8052C981092BF051092BE05809102018F7D809302015F9A8A9A26
:203A000080910801816080930801129A8CE060E00E94C6410E942241E0909F08F090A0084A
:203A20000091A1081091A20820919708309198084091990850919A08621B730B840B950B31
:203A4000E616F7060807190768F4E114F1040105110541F05F9A8A9A809108018160809380
:203A60000801129A9091A5088091A408981749F09091A50802C09F5F9F708091A408981715
:203A8000D1F79091A4088091A5089817F9F00E9488140E942241E0909B08F0909C08009130
:203AA0009D0810919E0820919708309198084091990850919A08621B730B840B950BE6164E
:203AC000F7060807190708F486CFA4CF1F910F91FF90EF9008954F925F926F927F928F92F6
:203AE0009F92AF92BF92CF92DF92EF92FF920F931F9329013A0120911503309116034091F2
:203B00001703509118030E9481490E945149E7E58E2EEDE09E2E6093570D7093580D8093F4
:203B2000590D90935A0DC301B2012091190330911A0340911B0350911C030E9481490E9476
:203B40005149F401349660935B0D718382839383C801B70120911D0330911E0340911F037B
:203B6000509120030E9481490E945149F401389660935F0D718382839383C601B50120913A
:203B800021033091220340912303509124030E9481490E9451492CE030E0820E931E609324
:203BA000630DF4017183828393831092C5081092C4081092C7081092C6081092C9081092BE
:203BC000C80880E090E0A0E0B0E08093670D9093680DA093690DB0936A0D80936B0D909305
:203BE0006C0DA0936D0DB0936E0D80936F0D9093700DA093710DB093720D8093730D909389
:203C0000740DA093750DB093760D8093770D9093780DA093790DB0937A0D81E080937B0DEA
:203C20001F910F91FF90EF90DF90CF90BF90AF909F908F907F906F905F904F9008958F92E2
:203C40009F92AF92BF92CF92DF92EF92FF920F931F93CF93DF93EC016B01009709F45CC08C
:203C60008EA9882309F058C0EDA0FEA00FA118A5FB01B5A0A6A097A080A4C801B7012B2DEE
:203C80003A2D492D582D0E94A94788230CF044C0C801B701A80197010E9481497B018C014E
:203CA00069A97AA98BA99CA9905820E030E040E050EC0E9481492DA53EA54FA558A90E944A
:203CC00081499B01AC01C801B7010E9432470E94E8497B018C016B2D7A2D892D982D970107
:203CE000A8010E94A947882324F4EB2CFA2C092D182D6B2D7A2D892D982D9701A8010E9471
:203D0000A947882349F0C701D801F60185A396A3A7A3B0A781E085ABDF91CF911F910F9184
:203D2000FF90EF90DF90CF90BF90AF909F908F900895EF92FF920F931F93CF93DF93F09074
:203D4000A50800E010E020E030E0F8E4EF2E12C0FE9CE0011124C952D74FC901B801AE01E8
:203D60000E941F1E8F2D8F5F803109F480E0F82E98018E018091A408F81651F7C901B801C8
:203D800040E050E00E941F1EDF91CF911F910F91FF90EF900895AF92BF92CF92DF92EF9244
:203DA000FF920F931F93CF93DF93EB018A016115710509F466C04115510509F462C0D9A47C
:203DC000CAA4BBA4ACA46DA17EA18FA198A52D2D3C2D4B2D5A2D0E94A947882309F451C01F
:203DE0008EA9882309F043C0F801E5A0F6A007A110A56D2D7C2D8B2D9A2DA80197010E94CF
:203E00004D491816A4F5C801B701A80197010E9481497B018C0169A97AA98BA99CA9905878
:203E200020E030E040E050EC0E9481492DA53EA54FA558A90E9481499B01AC01C801B701CA
:203E40000E9432470E94E8497B018C016D2D7C2D8B2D9A2D9701A8010E94A947882324F413
:203E6000ED2CFC2C0B2D1A2DC701D80104C08D2D9C2DAB2DBA2D8DA39EA3AFA3B8A781E058
:203E80008DABDF91CF911F910F91FF90EF90DF90CF90BF90AF900895CF92DF92EF92FF92DF
:203EA0000F93DF93CF930F920F92CDB7DEB78091A4088FB7F894F090A5088FBF8091A4086A
:203EC00090E040968F1991098F709070049704F10091A40803500F70CC24DD2440E050E07B
:203EE000A8E4EA2E13C0802F002309F480E1082F01500E9DC00111248952974F9A83898308
:203F0000B6010E94CB1EA601C980DA800F1559F70F900F90CF91DF910F91FF90EF90DF9076
:203F2000CF9008951092A4081092A50880E1E7E5FDE0DF011D928A95E9F780E090E0A0E000
:203F4000B0E080936B0D90936C0DA0936D0DB0936E0D80936F0D9093700DA093710DB0931C
:203F6000720D8093730D9093740DA093750DB093760D8093770D9093780DA093790DB093D5
:203F80007A0D8093670D9093680DA093690DB0936A0D08952F923F924F925F926F927F9205
:203FA0008F929F92AF92BF92CF92DF92EF92FF920F931F93DF93CF93CDB7DEB766970FB636
:203FC000F894DEBF0FBECDBF9E8B8D8B6A017B0148015901DC01D7966D917D918D919C91F3
:203FE000DA970E944848698B7A8B8B8B9C8BA70196010E9481490E9496470E941A486D83CA
:204000007E838F83988769897A898B899C89A50194010E9481490E9496470E941A4869832A
:204020007A838B839C832D813E814F815885283731054105510540F448E750E060E070E0E8
:204040004D835E836F83788769817A818B819C81683771058105910540F488E790E0A0E0EC
:20406000B0E089839A83AB83BC83AD89BE89AD5BBF4FAD90BD90CD90DC901397A354B040A3
:20408000BE8BAD8BDB966D917D918D919C91DE970E9448486D877E878F87988BC601B50181
:2040A0000E9448481B012C0120E030E040E050E00E94A947882321F4E0E070E060E028C09B
:2040C00069897A898B899C899B01AC010E9481497B018C016D857E858F8598899B01AC0181
:2040E0000E9481499B01AC01C801B7010E9431477B018C01C201B101A20191010E943247A2
:204100009B01AC01C801B7010E94AD47E62F692F2E2F372F482F562FB901CA010E949647CF
:204120000E9415483B014C01ED89FE89FF9660817181828193810E94484869877A878B8746
:204140009C8766277727CB016A197B098C099D090E9448485B016C0120E030E040E050E0A8
:204160000E94A947882321F4E0E070E060E028C069857A858B859C859B01AC010E948149E2
:204180007B018C0169897A898B899C899B01AC010E9481499B01AC01C801B7010E9431474F
:2041A0007B018C01C601B501A60195010E9432479B01AC01C801B7010E94AD47E62F692F14
:2041C0002E2F372F482F562FB901CA010E948348ED89FE89A088B188C288D388860175012E
:2041E000E618F708080919090E941548A8019701261B370B480B590B57FF71C0C201B10119
:2042000020E030E040E050E00E94A947882321F4E0E070E060E044C0C201B101A2019101EE
:204220000E9432477B018C01C601B5010E9446489B01AC01C801B7010E9481497B018C016E
:204240006D857E858F8598899B01AC010E9481499B01AC01C801B7010E9431477B018C0192
:2042600069857A858B859C859B01AC010E9481499B01AC01C801B7010E9432477B018C017D
:20428000C201B10120E030E040E850E40E9481499B01AC01C801B7010E94AD47E62F692FC4
:2042A0002E2F372F482F562FB901CA010E9496470E941548AC01CB01DA013C014D0197FEC8
:2042C00003C06624772443016A147B048C049D0410F03501460120E030E040E050E09FB751
:2042E000F8946D897E89695B7F4FDB018C91A754B040BE8BAD8B882319F5FD01648A758A9A
:20430000868A978A260D371D481D591D58962D933D934D935C935B972D813E814F815885B1
:20432000DB962D933D934D935C93DE97DF9629813A814B815C812D933D934D935C931397AC
:204340009FBF66960FB6F894DEBF0FBECDBFCF91DF911F910F91FF90EF90DF90CF90BF9071
:20436000AF909F908F907F906F905F904F903F902F9008954F925F927F928F929F92AF9233
:20438000BF92CF92DF92EF92FF920F931F93CF93DF937090A508C0E0D0E0B8E44B2E512C31
:2043A00046C02097B1F18DA9882361F4849CF001859CF00D949CF00D1124E952F74F85A928
:2043C000882339F1E9A0FAA00BA11CA16DA17EA18FA198A5A80197010E94AD475B016C0142
:2043E000849CF001859CF00D949CF00D1124E952F74F65A176A187A190A5A80197010E944E
:20440000AD478B019C01CE01B601A5010E94CA1F1DAA739480E1781609F47724849CE00172
:20442000859CD00D949CD00D1124C952D74F872C992487FC90948091A40890E0881699067A
:2044400009F0AFCF2097F1F0E9A0FAA00BA11CA16DA17EA18FA198A5A80197010E94AD4750
:204460005B016C016DEC7CEC8CE49DE3A80197010E94AD478B019C01CE01B601A5010E94F4
:20448000CA1F1DAADF91CF911F910F91FF90EF90DF90CF90BF90AF909F908F907F905F9096
:2044A0004F9008950E944C1F0E94991E0E94BA2108952F923F924F925F926F927F928F9269
:2044C0009F92AF92BF92CF92DF92EF92FF920F931F93DF93CF93CDB7DEB7CC57D0400FB6FC
:2044E000F894DEBF0FBECDBF3B014C0119012A016796ECAEFDAE0EAF1FAF6797CE56DF4F4F
:204500002881C259D040EA962FAFEA97CD56DF4F3881C359D040EB963FAFEB97CC56DF4F71
:204520004881C459D040EC964FAFEC97CB56DF4F5881C559D040ED965FAFED978091A4085A
:204540008F5F803109F480E0682F772767FD70957CA76BA773C00E9488140E942241E090A6
:204560009B08F0909C0800919D0810919E0820919708309198084091990850919A08621BD4
:20458000730B840B950BE616F70608071907F8F4E114F10401051105D1F01092B905109291
:2045A000B8052C981092BF051092BE05809102018F7D809302015F9A8A9A80910801816061
:2045C00080930801129A8CE060E00E94C6410E942241E0909F08F090A0080091A10810919F
:2045E000A20820919708309198084091990850919A08621B730B840B950BE616F706080739
:20460000190768F4E114F1040105110541F05F9A8A9A80910801816080930801129A9091E6
:20462000A5088091A408981749F09091A50802C09F5F9F708091A4089817D1F78091A50899
:2046400090E0ABA5BCA58A179B0709F484CFC401B3012091150330911603409117035091BE
:2046600018030E9481490E945149A4966FAFA497A5967FAFA597A6968FAFA697A7969FAFFD
:20468000A797C201B1012091190330911A0340911B0350911C030E9481490E945149A896E7
:2046A0006FAFA897A9967FAFA997AA968FAFAA97AB969FAFAB9767966CAD7DAD8EAD9FAD99
:2046C000679720911D0330911E0340911F03509120030E9481490E945149AC966FAFAC97E7
:2046E000AD967FAFAD97AE968FAFAE97AF969FAFAF97C601B501209121033091220340915C
:204700002303509124030E9481490E945149E0966FAFE097E1967FAFE197E2968FAFE2976C
:20472000E3969FAFE3978091A408E82FF0E06396FFAFEEAF639788E490E09F01289FF00122
:20474000299FF00D389FF00D1124E952F74FE95BFF4F1082E754F0404091570D5091580D00
:204760006091590D70915A0D61964CAF5DAF6EAF7FAF6197A7962CAD3DAD4EAD5FADA797F4
:2047800061966CAD7DAD8EAD9FAD6197261B370B480B590B208331834283538357FF0BC013
:2047A00088279927DC01821B930BA40BB50B80839183A283B38380915B0D90915C0DA0915D
:2047C0005D0DB0915E0D2D968CAF9DAFAEAFBFAF2D9763968EAD9FAD6397880F991FFC0124
:2047E00023E0EE0FFF1F2A95E1F7E80FF91FEE0FFF1FEE0FFF1FE552F74FAB962CAD3DAD3E
:204800004EAD5FADAB972D966CAD7DAD8EAD9FAD2D97261B370B480B590B208331834283A8
:20482000538357FF0BC088279927DC01821B930BA40BB50B80839183A283B38380915F0D9C
:204840009091600DA091610DB091620D29968CAF9DAFAEAFBFAF29976396EEADFFAD639770
:2048600013E0EE0FFF1F1A95E1F76396AEADBFAD6397EA0FFB1FB3E0EE0FFF1FBA95E1F701
:20488000E152F74FAF962CAD3DAD4EAD5FADAF9729966CAD7DAD8EAD9FAD2997261B370B7E
:2048A000480B590B208331834283538357FF0BC088279927DC01821B930BA40BB50B808335
:2048C0009183A283B3832090630D3090640D4090650D5090660DE3968CAD9DADAEADBFADC0
:2048E000E39782199309A409B50925968CAF9DAFAEAFBFAF2597E0916B03F0916C03BC0147
:20490000CD0197FF07C090958095709561957F4F8F4F9F4F9F01442737FD4095542F0E9464
:204920003C4A24E630E040E050E00E94904A88E490E06396EEADFFAD6397E89FD001E99F15
:20494000B00DF89FB00D1124A952B74FFD013C961C962C931C973183428353836D907D90C3
:204960008D909C906396EEADFFAD6397EE0FFF1FCF0173E0880F991F7A95E1F7E80FF91F31
:20498000EE0FFF1FEE0FFF1FE552F74FA080B180C280D3806396EEADFFAD639793E0EE0FD4
:2049A000FF1F9A95E1F763966EAD7FAD6397E60FF71F83E0EE0FFF1F8A95E1F7E152F74F9F
:2049C000E080F18002811381C901DA018E159F05A007B10714F4D801C7018A159B05AC050B
:2049E000BD0514F4D601C5019C01AD0186159705A805B90514F4A401930188E490E063964D
:204A0000AEADBFAD6397A89FF001A99FF00DB89FF00D1124E952F74F208B318B428B538B3C
:204A2000263031054105510510F40C94682E10A2A7962CAD3DAD4EAD5FADA79761966CAD0D
:204A40007DAD8EAD9FAD6197261737074807590714F481E080A3AB968CAD9DADAEADBFAD6C
:204A6000AB972D962CAD3DAD4EAD5FAD2D9782179307A407B50794F488E490E063964EADB1
:204A80005FAD6397489FF001499FF00D589FF00D1124E952F74F80A1826080A3AF966CAD25
:204AA0007DAD8EAD9FADAF9729962CAD3DAD4EAD5FAD2997621773078407950794F488E4A8
:204AC00090E063964EAD5FAD6397489FF001499FF00D589FF00D1124E952F74F80A1846000
:204AE00080A3E3966CAD7DAD8EAD9FADE397621573058405950514F588E490E06396AEAD8B
:204B0000BFAD6397A89FF001A99FF00DB89FF00D1124E952F74F80A1886080A380E090E0AC
:204B2000A4E3B2E48093710390937203A0937303B093740381E08093A3082FC08091A3080C
:204B40008823D9F088E490E063962EAD3FAD6397289FF001299FF00D389FF00D1124E9528A
:204B6000F74F84859585A685B785181619061A061B069CF41092A30810C0809131039091C4
:204B80003203A0913303B09134038093710390937203A0937303B093740388E490E06396AA
:204BA0004EAD5FAD6397489FF001499FF00D589FF00D1124E952F74F6081718182819381A3
:204BC00021966CAF7DAF8EAF9FAF2197611571058105910509F05F98809108018E7F809362
:204BE00008016396EEADFFAD6397EE0FFF1FCF0113E0880F991F1A95E1F7E80FF91FEE0FB2
:204C0000FF1FEE0FFF1FE552F74F80819181A281B38189AF9AAFABAFBCAF0097A105B1053B
:204C200009F08A986396EEADFFAD6397A3E0EE0FFF1FAA95E1F76396AEADBFAD6397EA0FB7
:204C4000FB1F73E0EE0FFF1F7A95E1F7E152F74F6080718082809380611471048104910482
:204C600009F05F98809108018E7F8093080188E490E063962EAD3FAD6397289FF001299FEB
:204C8000F00D389FF00D1124E952F74F84859585A685B7850097A105B10551F01298209075
:204CA000F3053090F4054090F5055090F60508C02090EF053090F0054090F1055090F205E0
:204CC000EA966FADEA97EB967FADEB97EC968FADEC97ED969FADED97A20191010E94A9472D
:204CE00087FD0EC0EA968FADEA97EB969FADEB97EC96AFADEC97ED96BFADED971C012D01B7
:204D00008091A4089091A508482F50E0405F5F4F491B51094F7050705AA749A7BA0188277C
:204D200077FD8095982F0E9448487B018C0120E030E040E051E40E94A94788239CF469A5A8
:204D40007AA56230710574F0C201B101A80197010E94814920E030E040E05EE30E948149C9
:204D60001B012C018091570D9091580DA091590DB0915A0DA7962CAD3DAD4EAD5FADA7976B
:204D8000281B390B4A0B5B0BCA01B9010E9448482091150330911603409117035091180390
:204DA0000E94AD47A0966FAFA097A1967FAFA197A2968FAFA297A3969FAFA397AC01CB014C
:204DC000DA0189839A83AB83BC8380915B0D90915C0DA0915D0DB0915E0DAB962CAD3DAD14
:204DE0004EAD5FADAB97281B390B4A0B5B0BCA01B9010E9448482091190330911A034091F5
:204E00001B0350911C030E94AD476C966FAF6C976D967FAF6D976E968FAF6E976F969FAFEC
:204E20006F97AC01CB01DA018D839E83AF83B88780915F0D9091600DA091610DB091620D1C
:204E4000AF962CAD3DAD4EAD5FADAF97281B390B4A0B5B0BCA01B9010E94484820911D0333
:204E600030911E0340911F03509120030E94AD4768966FAF689769967FAF69976A968FAF3D
:204E80006A976B969FAF6B97AC01CB01DA0189879A87AB87BC87E0906B03F0906C0325963E
:204EA0006CAD7DAD8EAD9FAD25970E944848209121033091220340912303509124030E94DE
:204EC000AD475B016C010027F7FC0095102FC801B7010E9448489B01AC01C601B5010E940C
:204EE000814920E030E048EC52E40E94AD476DAB7EAB8FAB98AF6D877E878F87988B21962D
:204F00004CAD5DAD6EAD7FAD2197463051056105710544F569AD7AAD8BAD9CAD66307105E4
:204F200081059105FCF476E06716710481049104CCF488E490E06396AEADBFAD6397A89F66
:204F4000F001A99FF00DB89FF00D1124E952F74F8DA99EA9AFA9B8ADBF7785A796A7A7A7EA
:204F6000B0AB55C0A0962FADA097A1963FADA197A2964FADA297A3965FADA397B901CA01AC
:204F80000E94324A3B014C016C962FAD6C976D963FAD6D976E964FAD6E976F965FAD6F977A
:204FA000B901CA010E94324A5B016C0168962FAD689769963FAD69976A964FAD6A976B96C3
:204FC0005FAD6B97B901CA010E94324A7B018C01C401B301A60195010E943247A801970105
:204FE0000E9432470E94E84928E430E063964EAD5FAD6397429FF001439FF00D529FF00D0E
:205000001124E952F74F65A776A787A790AB88E490E063966EAD7FAD6397689F6001699FC2
:20502000D00C789FD00C112487ED98E0C80ED91ED6019D96ED90FD900D911C91D09760E0AD
:2050400070E080E89FE3A80197010E94AD479B01AC01C201B1010E9481496DA37EA38FA3B2
:2050600098A7C801B7012DA13EA14FA158A50E948149F60161A372A383A394A3608971891A
:20508000828993890E9446482DA13EA14FA158A50E9481490E9496470E941548D601D796F1
:2050A0006D937D938D939C93DA97E4961FAEE497E5961FAEE59760E8262E5FE3352E4424F1
:2050C0005524E1E0F0E0EC0FFD1FE40DF51D6DA17EA18FA198A520813181428153810E9486
:2050E0008149E1E1F0E0EC0FFD1FE40DF51D60837183828393835B016C01E894D7F8F20141
:20510000EB5DFC4FE080F18002811381C601B501A80197010E944D491816ACF4C801B701CF
:20512000A60195010E94AD473B014C01E4966FADE497E5967FADE597C101A40193010E9442
:20514000A94788234CF4E4968FADE497E5969FADE597D1013C014D01E4E0F0E04E0E5F1E36
:20516000FCE04F16510451F0D401C301E4966FAEE497E5969FAFE5971D01A3CF6DA97EA99B
:205180008FA998AD2DA13EA14FA158A50E9481496D8F7E8F8F8F98A35B016C01E894D7F816
:2051A000E0907103F09072030091730310917403C601B501A80197010E944D49181684F45B
:2051C000C801B701A60195010E94AD476B017C01C401B301A70196010E94A947882314F495
:2051E00074016301C701B60120E030E040E85FE30E94A94788230CF04CC08E010F5E1F4F2E
:2052000041E2A42EB12CAC0EBD1ED8016D917D918D919C91A70196010E948149F80161935F
:205220007193819391938F01EA15FB0571F788E490E063962EAD3FAD6397289F8001299F95
:20524000100D389F100D11240952174FD80191966D917D918D919C919497A70196010E94E4
:205260008149F80161A372A383A394A367A970AD81AD92AD0E944848A70196010E9481497E
:205280000E941548D801D7966D937D938D939C93DA9788E490E06396EEADFFAD6397E89F5C
:2052A0008001E99F100DF89F100D11240952174FD80150966D917D918D919C9153970E947C
:2052C0004648F80125A536A547A550A90E94AD471B012C01F80180819181A281B3810097E4
:2052E000A105B10509F053C06396EEADFFAD6397EE0FFF1FCF0123E0880F991F2A95E1F738
:20530000E80FF91FEE0FFF1FEE0FFF1FE552F74F80819181A281B3810097A105B105B9F5C0
:205320006396EEADFFAD6397B3E0EE0FFF1FBA95E1F763962EAD3FAD6397E20FF31FA3E01E
:20534000EE0FFF1FAA95E1F7E152F74F80819181A281B3810097A105B105C9F4C201B10113
:20536000209145033091460340914703509148030E9481490E9496470D5B1F4F0E94154823
:20538000D8016D937D938D939C93139798C1C201B10120914103309142034091430350916A
:2053A00044030E9481490E9496470E94154828E430E06396EEADFFAD6397E29F6001E39F02
:2053C000D00CF29FD00C112427ED38E0C20ED31EE3E46E2E712C6C0C7D1CD3016D937D936D
:2053E0008D939C9313978090F7059090F805A090F905B090FA050E9448487B018C01F601EC
:2054000060817181828193810E9448489B01AC01C801B7010E9481497B018C01D601509674
:205420006D917D918D919C9153970E9446489B01AC01C801B7010E94AD477B018C01C501CC
:20544000B4010E9446489B01AC01C801B7010E944D4918162CF4F30180829182A282B382B5
:205460008090FB059090FC05A090FD05B090FE0588E490E063962EAD3FAD6397289F6001C8
:20548000299FD00C389FD00C112447ED58E0C40ED51E73E4672E712C6C0C7D1CD3016D91E3
:2054A0007D918D919C910E9448487B018C016396EEADFFAD6397EE0FFF1FCF0153E0880F69
:2054C000991F5A95E1F7E80FF91FEE0FFF1FEE0FFF1FE552F74F60817181828193810E94FF
:2054E00048489B01AC01C801B7010E9481497B018C01F60160897189828993890E944648AC
:205500009B01AC01C801B7010E94AD477B018C01C501B4010E9446489B01AC01C801B701AD
:205520000E944D49181634F4D3018D929D92AD92BC9213978090030690900406A090050606
:20554000B090060688E490E06396EEADFFAD6397E89F6001E99FD00CF89FD00C112427EDE1
:2055600038E0C20ED31E33E4632E712C6C0C7D1CD3016D917D918D919C910E9448487B0123
:205580008C01F60164857585868597850E9448489B01AC01C801B7010E9481497B018C010C
:2055A000D60150966D917D918D919C9153970E9446489B01AC01C801B7010E94AD477B01E1
:2055C0008C01C501B4010E9446489B01AC01C801B7010E944D4918162CF4F301808291823A
:2055E000A282B3828090FF0590900006A0900106B090020688E490E063962EAD3FAD639703
:20560000289F6001299FD00C389FD00C112447ED58E0C40ED51E23E4622E712C6C0C7D1C60
:20562000D3016D917D918D919C910E9448487B018C016396EEADFFAD639793E0EE0FFF1F3C
:205640009A95E1F763962EAD3FAD6397E20FF31F83E0EE0FFF1F8A95E1F7E152F74F6081B7
:205660007181828193810E9448489B01AC01C801B7010E9481497B018C01D60150966D91F5
:205680007D918D919C9153970E9446489B01AC01C801B7010E94AD477B018C01C501B401B3
:2056A0000E9446489B01AC01C801B7010E944D4918162CF4F30180829182A282B38288E49C
:2056C00090E063962EAD3FAD6397289F6001299FD00C389FD00C112447ED58E0C40ED51EBB
:2056E000F601ED5BFF4F60817181828193810E9448487B018C01A20191010E94AD47D60156
:20570000D1966D937D938D939C93D497C801B7012DEB37E346E051E40E9481490E941548DF
:20572000F601648F758F868F978F6091490370914A0380914B0390914C0320E030E040E0B6
:205740005FE30E9481495B016C01298D3A8D4B8D5C8D2DA73EA74FA758AB60914D037091A0
:205760004E0380914F039091500320E030E040E05FE30E9481497B018C016DA57EA58FA5B1
:2057800098A99F77A80197010E944D49181644F4C601B501A80197010E94A947882314F4D0
:2057A000860175014D8D5E8D6F8D78A149AB5AAB6BAB7CAB609151037091520380915303DA
:2057C0009091540320E030E040E05FE30E9481491B012C0169A97AA98BA99CA99F77A201C3
:2057E00091010E944D49181644F4C801B701A20191010E94A947882314F41701280180912C
:205800007B0D813061F410927B0D0F2EFDEC2F2EFCEC3F2EFCEC4F2EFDE35F2EF02D88E49D
:2058200090E063966EAD7FAD6397689FF001699FF00D789FF00D1124E952F74F81A192A1A2
:20584000A3A1B4A189A39AA3ABA3BCA3C201B10129A13AA14BA15CA10E94A94787FD04C0BC
:2058600029A03AA04BA05CA0A9A5BAA512970CF4F9C0B091670DE696BFAFE697E091680D8D
:20588000E796EFAFE797F091690DE896FFAFE89720916A0DE9962FAFE9976B2F7E2F8F2FC3
:2058A000922F27E137EB41ED58E30E944D4918160CF0D8C069897A898B899C8920916B0D43
:2058C00030916C0D40916D0D50916E0D0E9431479B01AC010E9481497B018C016D897E8912
:2058E0008F89988D20916F0D3091700D4091710D5091720D0E9431479B01AC010E94814982
:205900009B01AC01C801B7010E9432470E94E8495B016C01E0904903F0904A0300914B039E
:2059200010914C03A80197010E944D4918165CF00F2EF0E06F2EF0E07F2EF0E88F2EFFE3E6
:205940009F2EF02D08C0C801B701A60195010E94AD473B014C016DA57EA58FA598A920915D
:20596000730D3091740D4091750D5091760D0E9431475B016C01E894D7F8E0904D03F09040
:205980004E0300914F0310915003C601B501A80197010E944D49181684F4C801B701A6011B
:2059A00095010E94AD475B016C01C401B301A60195010E94A947882314F46401530169A92C
:2059C0007AA98BA99CA92091770D3091780D4091790D50917A0D0E9431473B014C01E894D2
:2059E00097F8E0905103F09052030091530310915403C401B301A80197010E944D49181680
:205A000084F4C801B701A40193010E94AD477B018C01C601B501A80197010E94A9478823BA
:205A200014F48601750169A17AA18BA19CA1A80197010E9481497B018C01E6966FADE69708
:205A4000E7967FADE797E8968FADE897E9969FADE997A80197010E94A94787FD11C0D8019A
:205A6000C70102C0D201C101E6968FAFE697E7969FAFE797E896AFAFE897E996BFAFE997BF
:205A800088E490E063964EAD5FAD6397489F8001499F100D589F100D11240952174FE6963D
:205AA0008FADE697E7969FADE797E896AFADE897E996BFADE997F80181A792A7A3A7B4A723
:205AC00061A972A983A994A9905820E030E040E050EC0E948149D8019D962D913D914D9102
:205AE0005C91D0970E9481492BE037ED43E25BE30E9432470E94E849F62EE72ED82EC92E30
:205B0000E6966FADE697E7967FADE797E8968FADE897E9969FADE9972F2D3E2D4D2D5C2DFB
:205B20000E94A94787FD0CC0E696FFAEE697E796EFAEE797E896DFAEE897E996CFAEE9973F
:205B400088E490E06396EEADFFAD6397E89F8001E99F100DF89F100D11240952174FE6965C
:205B60008FADE697E7969FADE797E896AFADE897E996BFADE997F80185A396A3A7A3B0A766
:205B800061A172A183A194A12F2D3E2D4D2D5C2D0E94A94718162CF081E0D801D6968C932C
:205BA00002C0F80116AA88E490E063962EAD3FAD6397289FF001299FF00D389FF00D11244E
:205BC000E952F74F81E085ABABE6BDE0FE01719680E101900D928150E1F788E490E0639670
:205BE0004EAD5FAD6397489F6001499FD00C589FD00C112467ED78E0C60ED71ED60191961D
:205C0000ED90FD900D911C919497E092670DF092680D0093690D10936A0D95966D917D91CD
:205C20008D919C919897A80197010E94AD474B015C01C201B101A80197010E94AD478B0192
:205C40009C01C601B501A4010E94CA1FBBA5B093A408E3962CAD3DAD4EAD5FADE39720933B
:205C6000630D3093640D4093650D5093660DAF964CAD5DAD6EAD7FADAF9740935F0D5093EE
:205C8000600D6093610D7093620DAB966CAD7DAD8EAD9FADAB9760935B0D70935C0D80939D
:205CA0005D0D90935E0DA7968CAD9DADAEADBFADA7978093570D9093580DA093590DB0934C
:205CC0005A0D0E94522280916F00826080936F00C458DF4F0FB6F894DEBF0FBECDBFCF9172
:205CE000DF911F910F91FF90EF90DF90CF90BF90AF909F908F907F906F905F904F903F9081
:205D00002F9008954F925F926F927F928F929F92AF92BF92CF92DF92EF92FF920F931F9327
:205D2000DF93CF9300D00F92CDB7DEB780914306882309F0A8C060910A0670910B0680917B
:205D40000C0690910D0620E030E040E050E00E94A947882364F480E090E0A0E0B0E0809315
:205D60000A0690930B06A0930C06B0930D0660910E0670910F06809110069091110620E0CA
:205D800030E040E050E00E94A947882364F480E090E0A0E0B0E080930E0690930F06A0939C
:205DA0001006B09311066091120670911306809114069091150620E030E040E050E00E94E7
:205DC000A947882364F480E090E0A0E0B0E08093120690931306A0931406B09315066091ED
:205DE0000A0670910B0680910C0690910D0620E030E04EE353E40E944D49181664F480E094
:205E000090E0AEE3B3E480930A0690930B06A0930C06B0930D0660910E0670910F068091CC
:205E200010069091110620E030E040E253E40E944D49181664F480E090E0A0E2B3E48093F1
:205E40000E0690930F06A0931006B09311066091120670911306809114069091150620E0C9
:205E600030E046E153E40E944D49181664F480E090E0A6E1B3E48093120690931306A0936E
:205E80001406B09315068091160690911706A0911806B091190689839A83AB83BC83BC011D
:205EA000CD01209126063091270640912806509129060E944D49E0916E03F0916F031816FF
:205EC00074F46091690370916A03882777FD8095982F9F01442737FD4095542F09C0BF0170
:205EE000882777FD8095982F24E630E040E050E00E943C4A00D00F924DB65EB60894411C90
:205F0000511CA0900A06B0900B06C0900C06D0900D0660900E0670900F068090100690904F
:205F20001106E0901206F090130600911406109115060E94484820E030E84BEB55E40E9467
:205F4000AD47D2016D937D938D939C931397C601B501A4019301A980BA80CB80DC800E940F
:205F6000592280910A0690910B06A0910C06B0910D0680931A0690931B06A0931C06B093AD
:205F80001D0680910E0690910F06A0911006B091110680931E0690931F06A0932006B093C9
:205FA00021068091120690911306A0911406B09115068093220690932306A0932406B09389
:205FC00025068091160690911706A0911806B09119068093260690932706A0932806B09349
:205FE00029060F900F900F900F900F900F900F900F90CF91DF911F910F91FF90EF90DF90DD
:20600000CF90BF90AF909F908F907F906F905F904F900895CF93DF93EC0106C085E99FE058
:2060200040E050E00E943B46FE01219664916623A9F7DF91CF9108950E9422416093970815
:20604000709398088093990890939A0887EF98E00E940A3008950F931F9305E91FE0C801B3
:206060000E9414448CEF98E00E940A3040913E0650913F0660914006709141064F5F5F4F41
:206080006F4F7F4FC8012AE030E00E9471460E941C301F910F910895CF92DF92EF92FF9279
:2060A0000F931F93CF93DF9350E6E52EF12C40E6D42ECC24C3946FC14D3071F04A3321F443
:2060C00080919008882341F020918E0830918F082F3531050CF442C1A0918E08B0918F0860
:2060E000109719F4109290086CC1E0918B08F0E0EE9D8001EF9D100DFE9D100D1124A00F60
:20610000B11FAC5BB94F1C92EC57F74F1082E801CC5BD94FCE016EE470E00E94DC129C0101
:20612000009709F4BDC090939208809391082F5F3F4F2C1B3D0B200F311FC9018C5B994F22
:2061400060E070E04AE050E00E94951160933A0670933B0680933C0690933D0620913E06E6
:2061600030913F0640914006509141062F5F3F4F4F4F5F4F621773078407950781F08091D6
:206180008B088D9DC00111248C5B994F60E072E00E94E712009719F486E999E05FC0809194
:2061A0008B0890E08E9DE0018F9DD00D9E9DD00D1124CE018C5B994F6AE270E00E94DC12B0
:2061C0009C01009709F448C040E010E0CE0102C01E274F5FFC01E40FF11DEC5BF94FE08104
:2061E000EA32B1F73093920820939108C901019660E070E00E9435100E941548212F30E0FB
:2062000026173707E1F181E799E00E940A3040913E0650913F06609140067091410685E94C
:206220009FE02AE030E00E94F24589E699E00E940A3060918B0880E6689FB00111246C5B8A
:20624000794F85E99FE00E9466460E942B3010928F0810928E08B5C089E399E00E940A3097
:2062600040913E0650913F06609140067091410685E99FE02AE030E00E947146E6CF80913E
:206280003A0690913B06A0913C06B0913D0680933E0690933F06A0934006B09341061AC0C9
:2062A000CE016AE270E00E94DC12009799F089E099E00E940A3040913E0650913F066091D9
:2062C00040067091410685E99FE02AE030E00E947146BDCF80918B0890E08E9D80018F9D58
:2062E000100D9E9D100D1124E801CC5BD94FCE0167E470E00E94DC129C010097D1F09093AA
:206300009208809391082F5F3F4F2C1B3D0B200F311FC9018C5B994F60E070E00E943510FD
:206320000E9415486230710520F484E099E00E940A3080918B088F5F80938B08863011F496
:2063400010928B0880918C088F5F80938C081092900810928F0810928E081DC04B3311F4C3
:20636000C0929008809190088823A9F480918B0890E08E9DF0018F9DF00D9E9DF00D11247C
:20638000E20FF31FEC5BF94F40832F5F3F4F30938F0820938E0885E99FE00E94C543181624
:2063A00019067CF480918C08863058F485E99FE00E94F043482F80938D088A3009F07CCEC9
:2063C0008BCEDF91CF911F910F91FF90EF90DF90CF9008956F927F928F929F92AF92BF92D5
:2063E000CF92DF92EF92FF920F931F93DF93CF930F920F92CDB7DEB780918C08853010F4D8
:206400000E944C3080918C08882311F40C94703F80918A08B0E6FB2E8F9D800111240C5B0F
:20642000194FC80167E470E00E94DC129093920880939108009709F4DFC5019660E070E038
:206440000E9435100E9415486C31710509F418C16D3171056CF477FF02C00C94603F6230F0
:206460007105A4F06430710511F00C94603FB3C06B35710509F453C56C35710509F453C5FE
:206480006A35710511F00C94603F46C50E948814AAE18A2EA6E09A2EFAE0AF2EF6E0BF2E53
:2064A00000E010E0E0E66E2E80918A08869DC0011124F801EF5EFC4F6081772767FD709575
:2064C0008C5B994F0E94DC129093920880939108009759F1019660E070E00E9435106B0199
:2064E0007C01F801E751FA4F8081882311F061E002C06091420670E0882777FD8095982F6D
:206500000E944848F40120813181428153810E9481499B01AC01C701B6010E943247F50125
:2065200060837183828393830AC0F40180819181A281B381F50180839183A283B3830F5F6A
:206540001F4F84E090E0880E991EA80EB91E0430110509F0A9CF80918A0820E6829FC001D9
:2065600011248C5B994F66E470E00E94DC129093920880939108009701F1019660E070E0D4
:206580000E9435100E9415487B018C017093370660933606B701882777FD8095982F0E9444
:2065A000484820E030E040E050E00E944D49181624F4F0926F03E0926E030E94822E0E94A2
:2065C000224160939708709398088093990890939A080C94623F80918A088F9DC0011124A4
:2065E0008C5B994F60E570E00E94DC129093920880939108009721F4AA24BB24650109C0B6
:20660000019660E070E00E9435100E941A485B016C0180918A0820E6829FC00111248C5BF8
:20662000994F63E570E00E94DC129093920880939108009779F0019660E070E00E943510D3
:2066400020E030E04AE754E40E9481490E941A485B016C010E9422417B018C01EA0CFB1C6D
:206660000C1D1D1D0E94E61C02C00E9488140E9422416E157F0580079107B8F30C94603FFE
:2066800080916E0390916F0390933906809338068091690390916A039093080680930706D6
:2066A0000E94224160939708709398088093990890939A0884E690E090936A03809369033E
:2066C00021E02093750380911A0690911B06A0911C06B0911D0680930A0690930B06A093DA
:2066E0000C06B0930D0680911E0690911F06A0912006B091210680930E0690930F06A09366
:206700001006B09311068091220690912306A0912406B09125068093120690931306A09325
:206720001406B09315068091260690912706A0912806B09129068093160690931706A093E5
:206740001806B093190610926F0310926E032093430680918A088F9D800111240C5B194F42
:2067600060911103772767FD7095C8010E94DC1290939208809391080097F1F460911203C9
:20678000772767FD7095C8010E94DC129093920880939108009781F460911303772767FD1B
:2067A0007095C8010E94DC129093920880939108009711F481E001C080E080936D038823C6
:2067C000B1F480918A0820E6829FC001112460911103772767FD70958C5B994F0E94DC12E9
:2067E0009093920880939108009709F40CC180E090E8AEE8B3E480931A0690931B06A09320
:206800001C06B0931D0620911E0630911F064091200650912106E0902206F0902306009164
:20682000240610912506A0902606B0902706C0902806D0902906BC01CD010E946B1D0F2E9A
:20684000F0E06F2EF0E07F2EF0E08F2EF0E09F2EF02D60920A0670920B0680920C069092AC
:206860000D06609135037091360380913703909138030E94154870936F0360936E030E9481
:20688000822E0E94E61C80E090E0A0EAB0EC80931A0690931B06A0931C06B0931D062091CB
:2068A0001E0630911F064091200650912106E0902206F09023060091240610912506A090D7
:2068C0002606B0902706C0902806D0902906BC01CD010E946B1D60920A0670920B06809236
:2068E0000C0690920D060E94822E0E94E61C80E090E0A0E2B1E480931A0690931B06A093CA
:206900001C06B0931D0620911E0630911F064091200650912106E0902206F0902306009163
:20692000240610912506A0902606B0902706C0902806D0902906BC01CD010E946B1D6092E4
