:200000006AC7000099C7000097C7000095C7000093C7000091C700008FC700008DC7000039
:200020008BC7000089C7000087C7000085C7000083C7000081C700000C94010B0C94DD0ABF
:200040007BC700000C94D12E77C7000075C7000073C7000071C700006FC700000C94824B30
:200060006BC700000C94904E0C94C64E65C7000063C7000061C700005FC700005DC7000054
:200080005BC7000059C7000057C7000055C7000053C7000051C700004FC700004DC7000088
:2000A0004BC7000049C7000047C7000045C7000043C7000041C700003FC700003DC70000E8
:2000C0003BC7000039C7000037C7000035C7000033C7000031C700002FC700002DC7000048
:2000E0002BC70000784C7B4C6A4C6E4C744CB24C7F4C834C894C8D4C914C974C9B4C9F4C7B
:20010000B24CA54CA94CAD4C084AD73B3BCE016E84BCBFFDC12F3D6C74319ABD56833DDAA5
:200120003D00C77F11BED9E4BB4C3E916BAAAABE000000803F05A84CCDB2D44EB93836A934
:20014000020C50B9918688083CA6AAAA2ABE000000803F0020002000200020002000200044
:200160004D54454D503A007C3C3E5E2B3D3F2F5B5D3B2C2A225C006F6B0D0A005265736551
:200180006E643A00446F6E65207072696E74696E672066696C650D0A006F6B0D0A004572C3
:2001A000726F723A204E6F204C696E65204E756D626572207769746820636865636B7375C2
:2001C0006D2C204C617374204C696E653A004572726F723A204E6F20436865636B73756D7C
:2001E0002077697468206C696E65206E756D6265722C204C617374204C696E653A00457239
:20020000726F723A20636865636B73756D206D69736D617463682C204C617374204C696E45
:20022000653A0053657269616C204572726F723A204C696E65204E756D626572206973200E
:200240006E6F74204C617374204C696E65204E756D6265722B312C204C617374204C696EE9
:20026000653A00556E6B6E6F776E20636F6D6D616E643A0D0A00467265652052616D3A2083
:2002800000205A3A0020593A00416464686F6D6520583A0020423A00543A000D0A007A5F79
:2002A0006D696E3A00795F6D696E3A00785F6D696E3A00453A005A3A00593A00583A000DD0
:2002C0000A0030303030303030302D303030302D303030302D303030302D30303030303080
:2002E000303030303030004649524D574152455F4E414D453A20537072696E7465722050E0
:2003000072696E74426F783344206279204D722E4B2050524F544F434F4C5F5645525349B3
:200320004F4E3A312E31204D414348494E455F545950453A4D656E64656C20455854525559
:200340004445525F434F554E543A310D0A0020443A0020573A0020453A3000543A0020404C
:200360003A3000202F0020423A00202F006F6B20543A00453A005A3A00593A00583A006FAA
:200380006B200044656C6574696F6E206661696C65640D0A0046696C652064656C657465EF
:2003A000640D0A0057726974696E6720746F2066696C653A20002E006F70656E2066616991
:2003C0006C65642C2046696C653A20004E6F74205344207072696E74696E670D0A002F0009
:2003E0005344207072696E74696E672062797465200066696C652E6F70656E206661696CAB
:2004000065640D0A0046696C652073656C65637465640D0A002053697A653A0046696C6587
:20042000206F70656E65643A00456E642066696C65206C6973740D0A00426567696E2066B2
:20044000696C65206C6973740D0A006572726F722077726974696E6720746F2066696C655E
:200460000D0A00446F6E6520736176696E672066696C652E0D0A006F6B0D0A00202F2000D2
:20048000506C616E204275666665722053697A653A00467265652052616D3A20005374651A
:2004A000707065722054696D657220696E69740D0A00506C616E6E657220496E69740D0ADE
:2004C00000536F66742050574D20496E69740D0A0053442053746172740D0A00737461720B
:2004E000740D0A000D0A00312E30202F2032332E30382E3230313500537072696E74657214
:200500000D0A00566F6C756D652073697A6520284D6279746573293A20000A566F6C756D15
:200520006520747970652069732046415400556E6B6E6F776E0D0A00534448430D0A0053EA
:2005400044320D0A005344310D0A000A4361726420747970653A20006F70656E526F6F7419
:20056000206661696C65640D0A00766F6C756D652E696E6974206661696C65640D0A005376
:200580004420696E6974206661696C0D0A0024F4D43050C38E20C2A24017828B7011127ABE
:2005A000910D816CD90AA861E108C7586607615143061E4B5D05C145A7041A411104093D22
:2005C0009803713931034036DB0265339102D4305402802E1D02632CEE01752AC501B02842
:2005E000A001102781018F2564012B244B01E0223401AC211F018D200D01801FFC00841ED1
:20060000ED00971DDF00B81CD200E61BC600201BBC00641AB200B219A8000A19A0006A180E
:200620009900D117910040178B00B516840031167E00B31579003A157300C7146F005814F9
:200640006A00EE1366008813630025135E00C7125B006C12570015125400C111510070110D
:200660004F0021114B00D61049008D1047004610440002104200C00F4000800F3E00420F80
:200680003C00060F3B00CB0E3800930E37005C0E3500270E3400F30D3200C10D3100900D0F
:2006A0003000600D2E00320D2D00050D2C00D90C2B00AE0C2900850C29005C0C2700350C48
:2006C00027000E0C2600E80B2400C40B2400A00B23007D0B23005A0B2100390B2100180B22
:2006E0002000F80A1F00D90A1E00BB0A1E009D0A1D00800A1D00630A1C00470A1B002C0A3F
:200700001B00110A1A00F7091A00DD091900C4091900AB091900920917007B091800630903
:2007200017004C09160036091600200916000A091500F5081500E0081400CC081400B808C5
:200740001400A4081400900813007D0812006B0813005808120046081200340811002308B3
:2007600011001208110001081100F0071000E0071000D0071000C0071000B0070F00A107F9
:20078000100091070E0083070F0074070F0065070E0057070E0049070E003B070D002E07B8
:2007A0000E0020070D0013070D0006070D00F9060C00ED060D00E0060C00D4060C00C80605
:2007C0000C00BC060C00B0060C00A4060B0099060C008D060B0082060B0077060B006C06F2
:2007E0000B0061060A0057060B004C060A0042060A0038060A002E060A0024060A001A068D
:200800000A001006090007060A00FD050900F4050900EB050900E2050900D9050900D005E6
:200820000900C7050900BE050900B5050800AD050800A50509009C050800940508008C0504
:200840000800840508007C050800740508006C050700650508005D050700560508004E05EC
:200860000700470507004005080038050700310507002A050700230507001C0506001605A9
:2008800007000F0507000805060002050700FB040600F5040700EE040600E8040600E20440
:2008A0000700DB040600D5040600CF040600C9040600C3040600BD040600B7040600B104B7
:2008C0000500AC040600A6040600A00405009B04060095040500900406008A04050085040B
:2008E0000500800406007A04050075040500700405006B04050066040500610405005C0442
:20090000050057040500520405004D04050048040500430405003E0404003A040500350462
:200920000500300404002C04050027040400230405001E0404001A0404001604050011046E
:2009400004000D040400090405000404040000040400FC030400F8030400F4030400F00368
:200960000400EC030400E8030400E4030400E0030400DC030400D8030400D4030400D0034F
:200980000400CC030400C8030300C503030024F404D9201BC40C5C0E9804C4095F02650747
:2009A0007101F405F900FB04B30048048700C10369005803550003034500BE023A008402A6
:2009C000310053022A002902250004022000E4011C00C8011900AF01170098011400840115
:2009E0001300710110006101100051010E0043010D0036010B002B010B0020010B00150184
:200A000009000C01090003010800FB000800F3000800EB000700E4000600DE000600D80015
:200A20000600D2000600CC000500C7000500C2000500BD000400B9000400B5000400B1008C
:200A40000400AD000400A9000400A5000300A20003009F0004009B00030098000300950076
:200A6000020093000300900003008D0002008B000300880002008600020084000300810014
:200A800002007F0002007D0002007B00020079000200770001007600020074000200720084
:200AA0000100710002006F0002006D0001006C0002006A00010069000200670001006600D1
:200AC000010065000100640002006200010061000100600001005F0002005D0001005C0008
:200AE00001005B0001005A0001005900010058000100570001005600010055000100540032
:200B0000010053000000530001005200010051000100500001004F0001004E0000004E004B
:200B200001004D0001004C0001004B0000004B0001004A000100490001004800000048005D
:200B4000010047000100460000004600010045000000450001004400010043000000430069
:200B6000010042000000420001004100000041000100400001003F0000003F0001003E006E
:200B800000003E0001003D0000003D0001003C0000003C0000003C0001003B0000003B0070
:200BA00001003A0000003A000100390000003900010038000000380000003800010037006C
:200BC000000037000100360000003600000036000100350000003500000035000100340066
:200BE00000003400000034000100330000003300000033000100320000003200000032005C
:200C000001003100000031000000310001003000000030000000300001002F0000002F0050
:200C200000002F0000002F0001002E0000002E0000002E0001002D0000002D0000002D0043
:200C400000002D0001002C0000002C0000002C0000002C0001002B0000002B0000002B0034
:200C600000002B0001002A0000002A0000002A0000002A0001002900000029000000290024
:200C8000000029000000290001002800000028000000280000002800000028000100270011
:200CA0000000270000002700000027000000270001002600000026000000260000002600FF
:200CC0000000260001002500000025000000250000002500000025000000250001002400EA
:200CE0000000240000002400000024000000240001002300000023000000230000002300D7
:200D00000000230000002300000023000100220000002200000022000000220000002200BF
:200D20000000220001002100000021000000210000002100000021000000210000002100A9
:200D4000010020000000200000002000000020000000200000002000000020000000200092
:200D600001001F0000001F0000001F0000001F0000001F0000001F0000001F0001001E007A
:200D800000001E0000001E0000001E00000000000A0B02090C0D0E0807030401000000009B
:200DA000000000000000000000000000000000000000000000000000000012111000000000
:200DC000000000000000000000000000000000000000000001021020200808102040102010
:200DE0004080020102010804020101020408102040808040201008040201800402018040D9
:200E0000201008040201080402010102040810204080010204081020408005050505070566
:200E200008080808020202020A0A0808040404040101010101010101030303030303030336
:200E4000040707070C0C0C0C0C0C0C0C0202020206060606060606060B0B0B0B0B0B0B0B89
:200E600000002200250028002B002E003100340002010000050108010B01000021002400E2
:200E800027002A002D003000330001010000040107010A014E414E494E495459494E46CD43
:200EA000CCCC3D0AD7233C17B7D13877CC2B329595E6241FB14F0A000020410000C84200DE
:200EC000401C4620BCBE4CCA1B0E5AAEC59D74005B0DE635F84E11241FBECFEFD1E2DEBFD0
:200EE000CDBF00E00CBF13E0A0E0B2E0E0E5F3EB00E00BBF02C007900D92A83EB107D9F703
:200F00002EE0A8EEB3E001C01D92A33EB207E1F71EE0C6EDDEE000E006C022970109FE01E1
:200F20000BBF0E949156C03DD10780E00807A9F70E943C4F0C94A65963C82F923F924F9210
:200F40005F926F927F928F929F92AF92BF92CF92DF92EF92FF920F931F93CF93DF93CDB71A
:200F6000DEB7C454D1090FB6F894DEBF0FBECDBF3C011B014A012FA309A7EBA6ADAEBEAE25
:200F8000CFAE2196DFAE219734E0239F20011124440D551D5AAB49ABDA01CD90DD90ED90CE
:200FA000FC90FC01E40DF51D2081318142815381C701B6010E948B516BAB7CAB8DAB9EAB00
:200FC000B4E00B9F80011124F401E00FF11FF8AFEFAB80809180A280B380F301E00FF11F8F
:200FE0002081318142815381C501B4010E948B5169AF7AAF8BAF9CAF2BA5F4E02F9FC00115
:201000001124F301E80FF91F2081318142815381298F3A8F4B8F5C8FF101E80FF91F608186
:201020007181828193810E948A516F8F78A389A39AA3D1011C968D919D910D90BC91A02D21
:201040008DA79EA7AFA7B8ABD3011C962D913D914D915C911F972BA33CA34DA35EA3A70185
:20106000960150582D8B3E8B4F8B588FD501C401B058898B9A8BAB8BBC8BF101E40DF51DA1
:201080002BA93CA94DA95EA960817181828193810E948A516B017C01F101E00FF11F29AD83
:2010A0003AAD4BAD5CAD60817181828193810E948A514B015C01A70196016D897E898F89E4
:2010C000988D0E9439552B013C01A501940169897A898B899C890E9439559B01AC01C301AC
:2010E000B2010E948B512B013C01A50194016D897E898F89988D0E9439554B015C01A70160
:20110000960169897A898B899C890E9439559B01AC01C501B4010E948A51A30192010E94C0
:20112000FE516B017C0120E030E0A9010E94645287FF0AC02BED3FE049EC50E4C701B601F6
:201140000E948B516B017C016F968FAD6F97882351F02BED3FE049EC50E4C701B6010E9434
:201160008A516B017C016E962CAD3DAD4EAD5FAD6E97C701B6010E9439552F8D38A149A1AA
:201180005AA15F770E9474544B015C012FE632E143E85AE30E94645287FDE2C1A501940121
:2011A000C501B4010E948B510E9441530E94D8527E8F6D8FDB01AB2B21F4E1E0F0E0FE8F46
:2011C000ED8F2D8D3E8DB90180E090E00E9404534B015C019B01AC01C701B6010E946B52BB
:2011E0002B013C01A50194016F8D78A189A19AA10E946B5225966CAF7DAF8EAF9FAF259729
:201200002BA13CA14DA15EA16DA57EA58FA598A90E948A51A50194010E946B526DA77EA73E
:201220008FA798AB20E030E040E05FE3C301B2010E943955A30192010E9439559B01AC016C
:2012400060E070E080E89FE30E948A516F8F78A389A39AA3E1E0F0E0EC0FFD1F4BA534E069
:20126000439FE00DF11D1124898D9A8DAB8DBC8D80839183A283B3832BA13CA14DA15EA196
:201280002D873E874F87588B912C41E050E05A8F498F81E090E08C0F9D1FBFA1A4E0BA9FE8
:2012A000800D911D11249CA78BA721E030E02C0F3D1F59A544E0549F200D311D11243AA7FB
:2012C00029A7F8A7EFA3298D3A8D4D8D5E8D2417350708F01EC18AE0981619F09FE0991232
:2012E00002C00E947B4BA7E2A9150CF440C02F8D38A149A15AA169897A898B899C890E9433
:2013000039556B017C01A30192016D897E898F89988D0E943955A70196010E948B515B019C
:201320008C012F8D38A149A15AA16D897E898F89988D0E9439556B017C01A301920169892A
:201340007A898B899C890E9439559B01AC01C701B6010E948A516D8B7E8B8F8B988F939473
:20136000C501D801898B9A8BAB8BBC8B6AC0E98DFA8DBF0180E090E00E940453A301920131
:201380000E9439556B017C010E946852698B7A8B8B8B9C8BC701B6010E949C554B015C01E7
:2013A000A9A9BAA9CD90DD90ED90FC90F7FAF094F7F8F094AFA9B8AD2D913D914D915C91A9
:2013C0002BA33CA34DA35EA329893A894B895C89C701B6010E9439556D8B7E8B8F8B988F50
:2013E000A50194016BA17CA18DA19EA10E9439559B01AC016D897E898F89988D0E948B51EB
:201400006D8B7E8B8F8B988FA5019401C701B6010E9439556B017C0129893A894B895C8989
:201420006BA17CA18DA19EA10E9439559B01AC01C701B6010E948A51698B7A8B8B8B9C8B6B
:20144000912C2D893E894F89588D6BA97CA98DA99EA90E948B51EBA5FCA560837183828354
:20146000938329893A894B895C8969AD7AAD8BAD9CAD0E948B51A9A5BAA56D937D938D930F
:201480009C93139725962CAD3DAD4EAD5FAD2597EFA1F8A560817181828193810E948B519D
:2014A000AFA1B8A56D937D938D939C9313972D853E854F8558896DA57EA58FA598A90E9400
:2014C0008B515B016C016D877E878F87988BE984FA840B851C852D813E814F815885698115
:2014E0007A818B819C812196BFAD2197BF93EFADEF93FEADFF93ADADAF930E943224E98D36
:20150000FA8D3196FA8FE98F0F900F900F900F90DACED1011C96AD90BD90CD90DC901F97CB
:201520001896ED90FD900D911C911B9714962D913D914D915C9117976D917D918D919C91F0
:201540002196BFAD2197BF93EFADEF93FEADFF93ADADAF930E9432240F900F900F900F90F3
:20156000CC5BDF4F0FB6F894DEBF0FBECDBFDF91CF911F910F91FF90EF90DF90CF90BF9084
:20158000AF909F908F907F906F905F904F903F902F90089581E087BB85E08093B100109249
:2015A000B000E0E7F0E080818160808380E88093B40080818460808308951F920F920FB634
:2015C0000F9211248F938091F003823060F0809102018064809302018091F0038E3F40F4FA
:2015E0008091F00306C0809102018F7B8093020180E88093B4008F910F900FBE0F901F90E4
:2016000018951F920F920FB60F9211248F938091F0038E3F20F080910201806403C0809161
:2016200002018F7B809302018F910F900FBE0F901F901895CF93DF93E1E02E2F30E02417C3
:201640003507A4F5D901AA0FBB1FAA0FBB1FA60FB71F1296CD91DC911397C817D90724F535
:20166000F901E150F04CEE0FFF1FEE0FFF1FE60FF71F428153810190F081E02DBC01641BE0
:20168000750B2D913C912E1B3F0B629FC001639F900D729F900D1124BE01641B750B0E9408
:2016A0000F566E0F7F1F13C0EF5FC7CF2417350761F4FA01E150F04CEE0FFF1FEE0FFF1F89
:2016C000E60FF71F6081718102C060E070E08FEF93E0861B970BDF91CF9108950F931F93E5
:2016E000CF93DF932FEF33E0281B390BE1E08E2F90E084179507ACF5DC01AA0FBB1FAA0F6F
:20170000BB1FA60FB71F0D911C9111972017310734F5FC01E150F04CEE0FFF1FEE0FFF1F39
:20172000E60FF71FC081D1810280F381E02D2C1B3D0B12964D915C9113974E1B5F0B249FC6
:20174000C001259F900D349F900D1124B8016C1B7D0B0E940F56CB018E0F9F1F13C0EF5FAB
:20176000C6CF8417950761F4FA01E150F04CEE0FFF1FEE0FFF1FE60FF71F8281938102C0C6
:2017800080E090E0DF91CF911F910F9108950F931F93CF93DF930E94CC4B0091090410919C
:2017A0000A0420910B0430910C04601B710B820B930B6B3F71058105910508F486C00E9448
:2017C000CC4B6093090470930A0480930B0490930C0480911302823008F077C080E691E0AE
:2017E0000E94081E0E94CC4BAB01BC012AE030E080E49EE00E946C508091130281112DC000
:201800008EE591E00E94081E40E150E064EB72E08091190490911A0461DF4AE050E0BC0166
:2018200080E49EE00E943F508CE591E00E94081E60911B0470911C044AE050E080E49EE07E
:201840000E943F508AE591E00E94081E1C9B35C04AE050E06FEF70E034C088E591E00E9487
:20186000081E41E150E060E772E0809115049091160434DF4AE050E0BC0180E49EE00E9444
:201880003F5086E591E00E94081E41E150E060E772E0809117049091180420DF4AE050E068
:2018A000BC0180E49EE00E943F5084E591E00E94081E8091000185FDCBCF4AE050E060E0EE
:2018C00070E080E49EE00E9446500E94CC4B00911104109112042091130430911404601B6C
:2018E000710B820B930B683C71058105910508F4DDC00E94CC4B6093110470931204809385
:201900001304909314048DE00E943A4C0FEF13E0081B190B10931A0400931904809108021C
:20192000909109028017910724F4109309020093080280910602909107020817190724F44F
:2019400010930702009306028091EE039091EF038017910744F010921E0410921D0410929F
:201960001C0410921B048091EA039091EB030817190744F010921E0410921D0410921C04BD
:2019800010921B048091050490910604E801C81BD90BD0930804C0930704E5E0F4E0929108
:2019A00082919383828383E0E33FF807C1F71093F4030093F30340E150E064EB72E0C801DF
:2019C0008DDE449620911B0430911C04821793079CF08091F1039091F20301968230910558
:2019E00039F09093F2038093F10380E090E006C01092F2031092F10381E090E020911D0439
:201A000030911E040C0F1D1F0217130714F4892B19F42C982F9804C0232B11F02C9A2F9A63
:201A20000E94CC4B00910D0410910E0420910F0430911004601B710B820B930B683C7105C3
:201A40008105910598F10E94CC4B60930D0470930E0480930F04909310048EE00E943A4C1C
:201A60002FEF33E0281B390B309316042093150480911704909118042817390774F48091A4
:201A8000EC039091ED03281739073CF08091E8039091E9038217930724F4809102018F7D27
:201AA00003C080910201806280930201DF91CF911F910F91089540E150E064EB72E08AE03E
:201AC00090E0B8DD9093EF038093EE0341E150E060E772E08AE090E0ADDD9093ED03809373
:201AE000EC0340E150E064EB72E082E291E0A2DD9093EB038093EA0341E150E060E772E0B5
:201B000086E990E097DD9093E9038093E80308958EBD0DB407FEFDCF08958FEFF9DF8EB5B5
:201B2000089561E0FC0184810C94EC4C60E0FC0184810C94EC4CCF93DF93EC018E81882358
:201B4000C1F08FEF8EBD4FEF8F8198859C012F5F3F4F38872F838130924028F40DB407FE11
:201B6000FDCF4EBDF1CF0DB407FEFDCFCE01D9DF1E82DF91CF910895673028F026E1FC01F5
:201B8000258380E008958DB560FD02C0663011F48E7F01C081608DBD8CB58C7F8CBD9CB5C5
:201BA00062FF02C082E001C080E066956170692B682B6CBD81E008950F931F93CF93DF933D
:201BC000EB010E94CC4B8B01A8DF8F3F49F00E94CC4B601B710B6C177D07B0F380E001C0CB
:201BE00081E0DF91CF911F910F910895CF92DF92FF920F931F93CF93DF9300D01F92CDB737
:201C0000DEB76C01F62E29833A834B835C8393DFC6018CDF6CE271E0C601CEDF8F2D806431
:201C200077DF08E110E05C814B813A812981DA01C901002E04C0B695A795979587950A9463
:201C4000D2F729833A834B835C8362DF0850110929813A814B815C81083F8FEF180739F7D0
:201C6000FF2029F0E8E0FE1621F08FEF03C085E901C087E84DDF10E050DFF601828787FF8F
:201C800004C01F3F11F01F5FF7CF0F900F900F900F90DF91CF911F910F91FF90DF90CF90E4
:201CA0000895BF92CF92DF92EF92FF920F931F93CF93DF93EC01B62E1B8619861E821D82DA
:201CC0004C830E94CC4B8B0161E08C810E94B34CCE0127DF60E082E30E94B34C61E083E33F
:201CE0000E94B34C61E084E30E94B34C61E085E30E94B34C83E58CBD8DB58E7F8DBD2AE05C
:201D0000F22E8FEF05DFFA94E1F7CE010FDF20E030E0A90160E0CE0169DFF82E8A8781E075
:201D2000F81649F00E94CC4B601B710B613D774070F381E046C02AEA31E040E050E068E0D0
:201D4000CE0154DF82FF02C0FB860CC094E0F92EE4DE8A87FA94E1F78A3A11F082E031C005
:201D600082E08B878B85823031F4C12CD12CE12C80E4F82E03C0C12CD12C760120E030E053
:201D8000A90167E3CE0132DFA701960169E2CE012DDF8A87882349F00E94CC4B601B710B65
:201DA000613D774058F388E00CC08B85823001F520E030E0A9016AE3CE0118DF882379F0B6
:201DC00086E08D83CE01ADDE80E0DF91CF911F910F91FF90EF90DF90CF90BF9008959DDE70
:201DE000807C803C11F483E08B8797DE96DE95DECE0197DE6B2DCE01DF91CF911F910F918A
:201E0000FF90EF90DF90CF90BF90B6CE0F931F93CF93DF93EC010E94CC4B8B017EDE8A874C
:201E20008F3F49F40E94CC4B601B710B6D327140A8F38FE003C08E3F31F08DE08D83CE0190
:201E400070DE80E001C081E0DF91CF911F910F910895CF92DF92EF92FF920F931F93CF935B
:201E6000DF93EC0169010115110509F472C0C801820F931F8130924008F06DC08E818823D0
:201E800071F088819981AA81BB81481759076A077B0729F48F819885C816D90608F54883D6
:201EA00059836A837B838B85833039F039E0440F551F661F771F3A95D1F79A01AB0161E154
:201EC000CE0194DE882319F083E08D8344C0CE019DDF882309F43FC018861F8281E08E83F3
:201EE0008FEF8EBD2FEF8F8198858C159D0550F40DB407FEFDCF2EBD8F81988501969887E7
:201F00008F83F1CFC8010197F7014FEF9F012E193F092817390738F40DB407FEFDCF2EB509
:201F200021934EBDF3CF0DB407FEFDCF2EB5F701E80FF91F20838F819885800F911F988776
:201F40008F832985222319F08115924010F0CE01F2DD81E003C0CE01E4DD80E0DF91CF9189
:201F60001F910F91FF90EF90DF90CF900895EF92FF920F931F93790100E012E020E030E0D6
:201F800068DF1F910F91FF90EF900895CF93DF93EC016EBD20E030E00DB407FEFDCFFA0176
:201FA000E20FF31F80818EBD0DB407FEFDCF81818EBD2E5F3F4F211582E0380769F70DB4E0
:201FC00007FEFDCF8FEFA4DD8FEFA2DDA6DD8A878F71853031F081E18D83CE01A2DD80E0AA
:201FE00001C081E0DF91CF9108950F931F93CF93DF93EC018901411551056105710511F426
:2020000082E12DC08B85833039F089E0440F551F661F771F8A95D1F79A01AB0168E1CE01F3
:20202000E5DD882311F084E01AC0A8016EEFCE01ADDF8823A9F068E572E0CE01BDDD8111B5
:2020400002C085E10CC020E030E0A9016DE0CE01CDDD811103C061DD882331F084E18D8338
:20206000CE015FDD80E003C0CE015BDD81E0DF91CF911F910F910895CF93DF93EC019C01AF
:20208000295F3F4F41E050E060E070E08C8D9D8D0E94741B8823A1F0488D598D6A8D7B8DDF
:2020A000452B462B472B71F44F81588569857A85488F598F6A8F7B8F8D8180688D8302C044
:2020C00080E001C081E0DF91CF910895CF92DF92EF92FF921F93CF93DF93EC01CDDF81117C
:2020E00002C080E04BC0EC8DFD8DCF80D884E984FA8482E0C81AD108E108F108058404C0CE
:20210000CC0CDD1CEE1CFF1C0A94D2F74685578560897189C40ED51EE61EF71E148181E004
:20212000C81AD108E108F108112361F0C701B601610F711D811D911D0E94C219882389F211
:202140001150F2CFEC8DFD8DC12C82E0D82EE12CF12C058404C0CC0CDD1CEE1CFF1C0A94FA
:20216000D2F74C895D896E897F894C0D5D1D6E1D7F1D4C8B5D8B6E8B7F8B81E0DF91CF91EF
:202180001F91FF90EF90DF90CF900895CF93DF93EC01462F6F85788989899A890E94881973
:2021A000882341F08B8920E2829FC0011124885D9B4F02C080E090E0DF91CF910895282FF1
:2021C000FB018BE030E231938150E9F7A22FB92F20E037E09D91992319F19E3219F0E7E6A7
:2021E000F1E008C03A3011F128E03AE0F3CF31964917E1F044914111FACF3217B8F04FEDE1
:20220000490F4E3598F441E0420FFB01E20FF11D2FE9290F2A3108F490529083242FDACF52
:2022200081E0FB019081903209F480E008950F931F93CF93DF93EC018B018E81882311F018
:2022400080E040C0FB0187898031B1F482E08E83188E198E1A8E1B8E408D518D60E070E070
:2022600095E0440F551F661F771F9A95D1F74C8B5D8B6E8B7F8B15C0803211F783E08E834B
:20228000FB01428D538D648D758D488F598F6A8F7B8F9E012C5E3F4FC8010E946A1A88238D
:2022A00079F21D8F0C8F81E08D831F82188619861A861B861C861D861E861F86188A198A09
:2022C0001A8A1B8ADF91CF911F910F910895DF92EF92FF920F931F93CF93DF938C01D62EBC
:2022E000EC01E12CF12C8881803279F088E0E81206C06EE280E49EE00E94874FF394688161
:2023000080E49EE00E94874FF394E3942196EBE0EE12E9CFF80183858871803131F46FE20A
:2023200080E49EE00E94874FF394FD1410F460E2F7CFDF91CF911F910F91FF90EF90DF9002
:202340000895CF93DF9300D0CDB7DEB76AE00E940356805D8983905D9A831B82BE016F5FC1
:202360007F4F80E49EE00E94864F0F900F900F90DF91CF910895CF93DF93EC01BC01672FD8
:20238000772766956454784F4AE050E080E49EE00E948D506DE280E49EE00E94874FCE01F2
:2023A00035E0969587953A95E1F78F70CADF6DE280E49EE00E94874F8C2F8F71DF91CF913E
:2023C000C0CFCF93DF93EC018D2F869586958695B8DF6AE380E49EE00E94874FCE0145E06E
:2023E000969587954A95E1F78F73ABDF6AE380E49EE00E94874F8C2F8F71880FDF91CF918A
:20240000A0CF2F923F924F925F926F927F928F929F92AF92BF92CF92DF92EF92FF920F936D
:202420001F93CF93DF93EC016B015A018E81811103C08FEF9FEFD7C08D8180FFFACF4C8930
:202440005D896E897F898B859C85AD85BE852501612C712C8A019B01081B190B2A0B3B0BB8
:20246000041515052605370518F45A01A81AB90A25011E0127E0220E311C4114510409F466
:202480007AC04B855C856D857E854A0181E09822EE818A019B01F9E03695279517950795B8
:2024A000FA95D1F78C8D9D8DE23051F4FC01628D738D848D958D600F711F821F931F3DC0BD
:2024C000FC0174807A94702281149104C1F4711016C0452B462B472B49F4888D998DAA8D33
:2024E000BB8D8F839887A987BA8709C04F81588569857A8591016BD7882309F49ACFEC8D31
:20250000FD8D6F81788589859A856250710981099109058404C0660F771F881F991F0A9472
:20252000D2F70685178520893189600F711F821F931F670D711D811D911D20E032E0281955
:20254000390932012415350508F439012D8126FD04C06114F2E07F0699F500910A02109130
:202560000B0220910C0230910D02601771078207930719F425C0C50136C07601830194016F
:20258000AB01BC01809126049091270462DC882309F44FCFC60CD71C04C0E81BF90BCE0EDB
:2025A000DF1E8B859C85AD85BE85860D971DA11DB11D8B879C87AD87BE87461857085DCF0E
:2025C00040E0A6D6882309F434CFC401885D9B4FD6019C01260D371DFC01E217F307E9F25A
:2025E00041914D93FACFDF91CF911F910F91FF90EF90DF90CF90BF90AF909F908F907F9079
:202600006F905F904F903F902F900895FF920F931F93CF93DF931F92CDB7DEB78C01FC01B5
:202620008681823018F480E090E033C0F8014385548565857685A5E076956795579547953F
:20264000AA95D1F7F42FFF70FF2E41E050E0BE016F5F7F4FC801D5DE019719F4298130E02D
:2026600002C02FEF3FEF2F3F3F4FE9F2F8014385548565857685415E5F4F6F4F7F4F438753
:20268000548765877687F0E2FF9EC0011124885D9B4F0F90DF91CF911F910F91FF90089557
:2026A0004F925F926F927F92AF92BF92CF92DF92EF92FF920F931F93CF93DF93EC016A0140
:2026C0007B012E81222309F456C08C899D89AE89BF8984179507A607B70708F44CC04DC006
:2026E0008B859C85AD85BE85EC8DFD8DE585F0E03996AC01BD0141505109610971090E2EB2
:2027000004C076956795579547950A94D2F797018601015011092109310904C03695279586
:2027200017950795EA95D2F70417150726073707A8F5888D998DAA8DBB8D8F839887A987AF
:20274000BA87280139015E0187E0A80EB11C411451046104710459F14F81588569857A8524
:2027600095018C8D9D8D33D691E0491A5108610871088111ECCF80E01FC02230C1F0C11404
:20278000D104E104F10409F0ABCF1F82188619861A861B861C861D861E860DC0892B8A2BD9
:2027A0008B2B39F2041B150B260B370BCACFCB86DC86ED86FE8681E0DF91CF911F910F91C2
:2027C000FF90EF90DF90CF90BF90AF907F906F905F904F9008950F931F93CF93DF93EC0101
:2027E0008E818823B9F18D8187FF2FC061E0CE01CDDC8C01009771F18E81823048F44C89E1
:202800005D896E897F89F801448F558F668F778F488D598D6A8D7B8DF801538F428F758BC2
:20282000648BE0911F04F0912004309759F0B8016A5E7F4FC80148961995F801808D918D98
:20284000938B828B8D818F778D83DF91CF911F910F9123C580E0DF91CF911F910F91089504
:20286000CF93DF93EC01B7DF882319F01E8281E001C080E0DF91CF9108954F925F926F92EB
:202880007F92AF92BF92CF92DF92EF92FF920F931F93CF93DF9300D01F92CDB7DEB75C0192
:2028A0006A017B01FC0186818130E9F4858181FF1AC0F50184899589A689B7898417950778
:2028C000A607B70780F0892B8A2B8B2B09F473C0F5014384548465847684B701A601C50131
:2028E000DFDE811102C080E067C0F501848D958DC114D104E104F10471F4408D518D628D94
:20290000738D0E94851C882371F3F501108E118E128E138E37C0F50147815085618572858A
:202920009E012F5F3F4F53D58823E9F249815A816B817C81F501848D958DFC012789203179
:2029400029F408EF1FEF20E030E004C008EF1FEF2FEF3FE0401751076207730798F4D5D775
:20296000882309F4C0CFF50147815085618572850FEF1FEF2FEF3FE0848D958D15D688239E
:2029800009F4B1CFF501C48AD58AE68AF78A858180688583C5011FDF882309F4A4CFB70199
:2029A000A6014C145D046E047F0410F4B301A201C50176DE01C081E00F900F900F900F90A7
:2029C000DF91CF911F910F91FF90EF90DF90CF90BF90AF907F906F905F904F900895FF9263
:2029E0000F931F93CF93DF93EC01F42E80E2689FF0011124E85DFB4F8385817129F0842FBC
:202A0000827411F080E051C06B8B80910A0290910B02A0910C02B0910D028F87988BA98B11
:202A2000BA8B4489558960E070E0BA0155274427028D138D20E030E0402B512B622B732B23
:202A4000488F598F6A8F7B8F8385887151F4048D158D268D378D0C8B1D8B2E8B3F8B81E0A1
:202A60000BC0803179F69E012C5E3F4F8C8D9D8D31D5882339F284E08E838F2D8F708D8355
:202A80001F82188619861A861B861C861D861E86F6FE0AC040E050E0BA01CE01DF91CF91C6
:202AA0001F910F91FF90E9CE81E0DF91CF911F910F91FF900895AF92BF92CF92DF92EF92EE
:202AC000FF920F931F93CF93DF93CDB7DEB72B970FB6F894DEBF0FBECDBF7C016B01CA0167
:202AE000B22EF70126812111B3C0BE016F5F7F4F66DB882309F4ACC0F601848D958DF701E0
:202B0000958F848FF60117821086118612861386148615861686A12CF60103851485258530
:202B2000368584899589A689B789081719072A073B07E0F545E036952795179507954A95E6
:202B4000D1F70F70C60162DD009709F481C0FC012081222311F0253EB9F4A1100EC0F701E8
:202B6000038B40910A0250910B0260910C0270910D024787508B618B728BFC018081AA248F
:202B8000A3948111C9CF12C04BE050E0BC01CE0101960E946259892B09F0BECF8B2D807342
:202BA000803309F455C04B2D602F4FC08B2D8271823109F04DC0AA2039F061E0C701E6DA1A
:202BC0008C01009771F444C0F6018681823009F43FC0C6017BDA8823D9F1F701138A08E2AC
:202BE00014E080E2F80111928A95E9F78BE0FE013196D80101900D928A95E1F7E0911F041F
:202C0000F0912004309739F0B801625F7F4FC8014096199509C081E298E2F801918B808BC4
:202C200080E098E097878687F80180899189938B828B918F808F86859785978B868B2DD3C1
:202C4000882331F04B2DF7016389C701C8DE01C080E02B960FB6F894DEBF0FBECDBFDF9145
:202C6000CF911F910F91FF90EF90DF90CF90BF90AF900895DF92EF92FF920F931F93CF9364
:202C8000DF93EC018B017A01D22E8E8181112CC0822F8073803341F1FB01848D958D9D8F5D
:202CA0008C8F65E0440F551F6A95E1F760E070E0C801F6DC8823C1F0C801A8DC0097A1F01A
:202CC000FC018081882381F0853E71F08E3261F06E2D6F704D2DCE01DF91CF911F910F91C2
:202CE000FF90EF90DF907BCE80E0DF91CF911F910F91FF90EF90DF9008952F923F924F9201
:202D00005F926F927F928F929F92AF92BF92CF92DF92EF92FF920F931F93CF93DF93CDB73C
:202D2000DEB7A1970FB6F894DEBF0FBECDBF7C01962EFC01178210861186128613861486B0
:202D400015861686C42ED12CF62FF370FF8F862F8170282EE62FE470E8A3F8EFAF2EF2E0B1
:202D6000BF2EA2E08A2E840EF62FF270F9A3C7014DDC8C01009709F485C0F801808188237B
:202D800009F480C0853E99F38E3289F3838583FDEECF312C832D992787FD90958C159D056D
:202DA0003CF460E280E49EE00E94874F3394F2CFFF8DFF2311F06EE001C060E0C80187DA97
:202DC000222069F0F801808D918DD5DA60E280E49EE00E94874FF80186899789F2DAF801FC
:202DE00083858871803119F0F9A1F1110FC080E49EE00E948E4F88A1882309F4B8CFF801FB
:202E000083858871803109F0B2CF11C060E280E49EE00E94874FF801448D558D668D778D76
:202E20002AE030E080E49EE00E946C50E0CFF701438454846584768475E0769467945794CA
:202E400047947A95D1F71C821B82BA82A9821F82A2014150510921E0B701CE0101960ADFE7
:202E6000882329F0482D692DCE01019646DFA201E5E0440F551FEA95E1F760E070E0C7011A
:202E80000FDC75CFA1960FB6F894DEBF0FBECDBFDF91CF911F910F91FF90EF90DF90CF9089
:202EA000BF90AF909F908F907F906F905F904F903F902F900895CF93DF93EC0140E050E01E
:202EC000BA01DBDC882361F061E0CE015FD9009739F025EEFC0120831E82DF91CF91DDC1BB
:202EE00080E0DF91CF910895CF93DF93CDB7DEB76E970FB6F894DEBF0FBECDBFAB011C8282
:202F00001B8228EF32E03A8329831F8222E0BC01CE010196D0DD882321F0CE010196CBDF43
:202F200001C080E06E960FB6F894DEBF0FBECDBFDF91CF9108952F923F924F925F926F9253
:202F40007F928F929F92AF92BF92CF92DF92EF92FF920F931F93CF93DF9300D01F921F923E
:202F6000CDB7DEB78C017B013A01DC0116968C9116978130C1F415968C9181FF14C082FF9E
:202F800018C0F801448955896689778983859485A585B68584179507A607B70751F0C80194
:202FA0007FDB811106C081E0F80184838FEF9FEF42C1630180C0D8015C968D919C915D9741
:202FC000FC01F481F150B501A40129E076956795579547952A95D1F7F423FD8321E0922238
:202FE000FF2309F474C080E092E08819990956018C159D0508F45C01D8015C96ED91FC91A0
:203000005D9717962D903D904D905C901A97B2E02B1A310841085108058404C0220C331C8F
:20302000441C551C0A94D2F786859785A089B189280E391E4A1E5B1EED812E0E311C411C0C
:20304000511CA114F2E0BF0609F088C080910A0290910B02A0910C02B0910D02821593056D
:20306000A405B50559F48FEF9FEFDC0180930A0290930B02A0930C02B0930D029701B2018A
:20308000A10180912604909127040E94F50F882309F489CF9EEFF91ACA18DB08F8018385FB
:2030A0009485A585B6858A0D9B1DA11DB11D83879487A587B687D8011B968D909D90AD9018
:2030C000BC901E97C114D10409F075CF88C08114910409F088CF17964D915D916D917C91C2
:2030E0001A97411551056105710559F458968D919D910D90BC91A02D0097A105B10541F530
:2031000021C09E012F5F3F4F62D1811102C090E092C089819A81AB81BC81F801248D358DD0
:20312000F9012789203129F448EF5FEF60E070E004C048EF5FEF6FEF7FE084179507A60778
:20314000B70730F0C8010E943C1081114CCF2BCFF80187839087A187B28745CF811491047A
:2031600021F5D8011B964D915D916D917C911E9754968D919D910D90BC91A02D4817590777
:203180006A077B0790F089D0882309F40CCF20920A0230920B0240920C0250920D02809171
:2031A000250481608093250407C041E0C201B101AFD0882309F4F7CEC401885D9B4FD70114
:2031C0009C012A0D3B1DFC01E217F30719F04D914193FACFE81BF90BEE0EFF1E5DCF549619
:2031E0008D919D910D90BC91A02DF801258188159905AA05BB0538F4848A958AA68AB78AB9
:20320000206825830CC080911F0490912004892B31F06114710419F02068F8012583D8016F
:2032200015968C9183FD02C0C30105C0C801D3DA8111FACFB8CE0F900F900F900F900F9089
:20324000DF91CF911F910F91FF90EF90DF90CF90BF90AF909F908F907F906F905F904F90BA
:203260003F902F900895CF93DF931F92CDB7DEB7698341E050E0BE016F5F7F4F5CDE0F9014
:20328000DF91CF910895FB0101900020E9F7AF0141505109461B570B4ECE809125048823D5
:2032A00099F140910A0250910B0260910C0270910D0228E234E080912604909127040E9463
:2032C000F50F882319F140912104509122046091230470912404411551056105710591F0EE
:2032E00028E234E080912604909127040E94F50F882361F01092210410922204109223042F
:20330000109224041092250481E0089580E00895CF92DF92EF92FF92CF936B017C01C42FFB
:2033200080910A0290910B02A0910C02B0910D028C159D05AE05BF05C9F0AFDF811102C05E
:2033400080E01AC028E234E0B701A60180912604909127040E94B70F882391F3C0920A023A
:20336000D0920B02E0920C02F0920D02809125048C2B8093250481E0CF91FF90EF90DF9062
:20338000CF900895CF92DF92EF92FF926B017C0184DF8823B1F0E8E2F4E0119286E0E832F4
:2033A000F807D9F7C0920A02D0920B02E0920C02F0920D028091250481608093250481E0A8
:2033C00001C080E0FF90EF90DF90CF9008958F929F92AF92BF92CF92DF92EF92FF920F93E9
:2033E0001F93CF93DF938C016A017B01E901FC0181859285A385B4850196A11DB11D8417B0
:203400009507A607B70710F480E057C0F80143895489658976898789803129F4BB27AF2DFF
:203420009E2D8D2D09C0D701C60127E0B695A795979587952A95D1F74C015D01840E951E52
:20344000A61EB71EC501B40180900A0290900B02A0900C02B0900D02681579058A059B0558
:2034600089F4F8018789803191F4DD24EE24FF24F601EE0FFF1FE85DFB4F80819181A0E026
:20348000B0E016C040E044DF8111EBCFBDCFE894C7F8DD24EE24FF24F601EE0FFF1FEE0F2B
:2034A000FF1FE85DFB4F80819181A281B381BF7088839983AA83BB8381E0DF91CF911F9153
:2034C0000F91FF90EF90DF90CF90BF90AF909F908F9008954F925F926F927F92AF92BF9281
:2034E000CF92DF92EF92FF920F931F93CF93DF9300D01F92CDB7DEB78C0149835A836B8302
:203500007C835901C12CD12C7601412C42E0542E612C712C49815A816B817C819E012F5FFB
:203520003F4FC80154DF882359F1D301C201F801058404C0880F991FAA1FBB1F0A94D2F7D6
:20354000C80ED91EEA1EFB1E49815A816B817C818789803129F488EF9FEFA0E0B0E004C038
:2035600088EF9FEFAFEFBFE0481759076A077B0788F2F501C082D182E282F38281E001C057
:2035800080E00F900F900F900F90DF91CF911F910F91FF90EF90DF90CF90BF90AF907F90B6
:2035A0006F905F904F9008954F925F926F927F928F929F92AF92BF92CF92DF92EF92FF92F5
:2035C0000F931F93CF93DF93EC016A017B0128013901423051056105710508F473C04985EB
:2035E0005A856B857C854F5F5F4F6F4F7F4F4C155D056E057F0508F465C08B889C88AD88CC
:20360000BE888F89803129F477276F2D5E2D4D2D09C0B701A601E7E0769567955795479581
:20362000EA95D1F7840E951EA61EB71E40910A0250910B0260910C0270910D028416950656
:20364000A606B70671F48F89803191F4DD24EE24FF24F601EE0FFF1FE85DFB4F51824082E2
:2036600017C040E0C501B40153DE8111ECCF2AC0E894C7F8DD24EE24FF24F601EE0FFF1FED
:20368000EE0FFF1FE85DFB4F4082518262827382809125048160809325048A89823080F086
:2036A0008D819E81AF81B885880D991DAA1DBB1D8093210490932204A0932304B093240440
:2036C00081E001C080E0DF91CF911F910F91FF90EF90DF90CF90BF90AF909F908F907F9081
:2036E0006F905F904F9008952F923F924F925F926F927F929F92AF92BF92CF92DF92EF92D4
:20370000FF920F931F93CF93DF93CDB7DEB760970FB6F894DEBF0FBECDBF5C014D875E8783
:203720006F87788B1901D9014D905D906D907C90411451046104710431F0BFEF4B1A5B0AAC
:203740006B0A7B0A10C0FC014080518062807380992493940D851E852F8538890130110567
:203760002105310509F0912CD50119962D913D914D915C911C972F5F3F4F4F4F5F4F298790
:203780003A874B875C87730162011D821E821F821886F50181859285A385B4850D811E81BD
:2037A0002F813885081719072A073B0708F054C029853A854B855C852C153D054E055F0586
:2037C00050F4A2E0CA2ED12CE12CF12CB2E04B2E512C612C712C9E012F5F3F4FB701A60138
:2037E000C501F5DD8823C1F149815A816B817C81D701C6010196A11DB11D452B462B472B31
:2038000019F02C013D010FC0AC01BD0144195509660977090D851E852F85388940175107F7
:203820006207730779F02D813E814F8158852F5F3F4F4F4F5F4F2D833E834F8358876C012B
:203840007D01A7CF0FEF1FEF2FEF3FE0B701A601C501AADE811117C080E03FC0D701C60117
:203860000197A109B1098D839E83AF83B88797018601AC01BD01C50197DE882369F3CD8091
:20388000DE80EF80F8844C145D046E047F0430F3D1014D915D916D917C914115510561054B
:2038A000710599F4F1014082518262827382992099F0FFEF4F1A5F0A6F0A7F0AD5014D92EC
:2038C0005D926D927C92139707C093018201C5016BDE8111E7CFC0CF81E060960FB6F894D6
:2038E000DEBF0FBECDBFDF91CF911F910F91FF90EF90DF90CF90BF90AF909F907F906F900B
:203900005F904F903F902F900895AF92BF92CF92DF92EF92FF920F931F93CF93DF9300D040
:203920001F92CDB7DEB75C016A017B0182E090E0A0E0B0E0F50180839183A283B3839E0190
:203940002F5F3F4FB701A601C50141DD882309F100E010E09801B701A601C50125DE882327
:20396000C1F0C980DA80EB80FC80F5018789803129F488EF9FEFA0E0B0E004C088EF9FEF5A
:20398000AFEFBFE0C816D906EA06FB06C0F281E001C080E00F900F900F900F90DF91CF91BC
:2039A0001F910F91FF90EF90DF90CF90BF90AF9008958F929F92AF92BF92CF92DF92EF9279
:2039C000FF920F931F93CF93DF93EC01142F7093270460932604442339F1453010F080E04D
:2039E000EDC040E060E070E0CB0192DC8823B9F320E1129FF0011124EA52FA4F80818F7775
:203A000071F784859585A685B78584369105A105B10528F3C084D184E284F384C114D104CD
:203A2000E104F10421F4DBCFC12CD12C760140E0C701B6016DDC882391F28091330490910D
:203A400034048115924059F630913804332339F28091360490913704892B09F4C0CF209161
:203A60003504222309F4BBCF3A8B2C831D8630E041E050E06D85062FCA01062E02C0880F4A
:203A8000991F0A94E2F72817390731F081E0860F8D87683078F3A3CF20913E0430913F04E1
:203AA0002115310519F040E050E008C020914C0430914D0440914E0450914F042D833E839E
:203AC0004F835887809136049091370446015701880E991EA11CB11C8B8A9C8AAD8ABE8A5E
:203AE000E0913904F0913A04F98FE88FA0913804B0E00E948156680D791D8A1D9B1D6A8F81
:203B00007B8F8C8F9D8F15E0EE0FFF1F1A95E1F7E150FE4FEF2FFF27E695DC01CB018E0F3A
:203B20009F1FA11DB11D8E879F87A88BB98B80903B0490903C048114910419F0A12CB12CFD
:203B400008C08090480490904904A0904A04B0904B04A7019601281B390B4A0B5B0BDA016B
:203B6000C901880D991DAA1DBB1D04C0B695A795979587950A95D2F789879A87AB87BC87F0
:203B8000853F3FE09307A105B10510F48CE014C0853F9F4FA105B10510F480E10DC08091B7
:203BA000540490915504A0915604B09157048A8F9B8FAC8FBD8F80E28F8B81E0DF91CF9195
:203BC0001F910F91FF90EF90DF90CF90BF90AF909F908F900895CF93DF931F921F92CDB786
:203BE000DEB78091DD0E9091DE0E9E012F5F3F4F009719F4235E3E4002C0281B390B3A83C3
:203C0000298389819A810F900F90DF91CF910895CF93DF93FC016491EC012196662331F014
:203C200080E49EE00E94874FCE01F4CFDF91CF910895CF92DF92EF92FF928BE495E0E8DF9C
:203C400080916C0B823039F0833041F0813049F485E495E008C08FE395E005C088E395E0FD
:203C600002C08EE295E0D4DF8AE195E0D1DF4AE050E060915A0B80E49EE00E947850A0912D
:203C8000470B20914C0B30914D0B40914E0B50914F0B89E0220F331F441F551F8A95D1F7A2
:203CA000B0E00E9481566B017C0183E095E0B0DFB701A60194E176956795579547959A95D9
:203CC000D1F72AE030E080E49EE0FF90EF90DF90CF900C9492501092FD0A80912B0B882327
:203CE00021F085E29BE00E94301445E360E081E69BE00E94510E811103C08FE795E012C08E
:203D000041E061E67BE083E49BE053DE81110BC040E061E67BE083E49BE04BDE811103C04E
:203D20008AE695E075CF63E47BE085E29BE00E941711811103C088E595E0F4CF81E080939E
:203D4000FD0A77CF0E94CC4B6093750B7093760B8093770B9093780BE091850BF0E0EA5719
:203D6000F44F8081811103C087E791E051CF0895AF92BF92CF92DF92EF92FF920F931F9344
:203D8000CF93DF93D82F2091D00D3091D10D4091D20D5091D30D6091CC0D7091CD0D8091F4
:203DA000CE0D9091CF0D0E947454C62F172F082FF92E2091040E3091050E4091060E5091CB
:203DC000070E6091140E7091150E8091160E9091170E0E94675440911402509115021816B2
:203DE00044F4A0911902B0911A029A010E94665605C024E630E0DA010E947B560E940653C1
:203E000020E030E84BEB55E40E946B525B016C01DF93FF920F931F93CF9322E0E22E01E047
:203E200020E04CEC5DE068E07EE088EF9DE00E949D078091080E9091090EA0910A0EB09144
:203E40000B0E8093F80D9093F90DA093FA0DB093FB0D80910C0E90910D0EA0910E0EB0918E
:203E60000F0E8093FC0D9093FD0DA093FE0DB093FF0D8091100E9091110EA091120EB0914E
:203E8000130E8093000E9093010EA093020EB093030E8091140E9091150EA091160EB0910A
:203EA000170E8093040E9093050EA093060EB093070E0F900F900F900F900F90DF91CF91F8
:203EC0001F910F91FF90EF90DF90CF90BF90AF9008952F923F924F925F926F927F928F92F4
:203EE0009F92AF92BF92CF92DF92EF92FF920F931F93CF93DF93CDB7DEB768970FB6F8948A
:203F0000DEBF0FBECDBF1C012A013B0148015901DC01D7966D917D918D919C91DA970E94D0
:203F200006536B017C01A30192010E9439550E9451520E94D85269877A878B879C87A501FB
:203F40009401C701B6010E9439550E9451520E94D8526D877E878F87988B29853A854B859D
:203F60005C85283731054105510540F488E790E0A0E0B0E089879A87AB87BC872D853E85F1
:203F80004F855889283731054105510540F488E790E0A0E0B0E08D879E87AF87B88B9101D4
:203FA0002D5B3F4FD9018D919D910D90BC91A02D89839A83AB83BC83BC01CD010E940653F2
:203FC0002B013C0169857A858B859C850E940453698B7A8B8B8B9C8B20E030E0A901C301AD
:203FE000B2010E946452882329F1A7019601C701B6010E9439554B015C0129893A894B8911
:204000005C89CA01B9010E9439559B01AC01C501B4010E948A514B015C01A3019201C30121
:20402000B2010E948B519B01AC01C501B4010E946B5203C060E070E0CB010E9451520E9426
:20404000D8526D837E838F83988769817A818B819C8190958095709561957F4F8F4F9F4F37
:204060000E9406534B015C016D857E858F8598890E94045369837A838B839C8320E030E053
:20408000A901C501B4010E946452882349F129813A814B815C81CA01B9010E9439556D8B03
:2040A0007E8B8F8B988FA7019601C701B6010E9439559B01AC016D897E898F89988D0E94A3
:2040C0008A516B017C01A5019401C501B4010E948B519B01AC01C701B6010E946B5203C0FE
:2040E00060E070E0CB010E944153F10180889188A288B388750164012D813E814F815885C1
:20410000C21AD30AE40AF50A0E94D852C61AD70AE80AF90AF7FE64C020E030E0A901C301E0
:20412000B2010E946452882309F443C0A3019201C301B2010E948B516B017C01C501B40139
:204140000E9404539B01AC01C701B6010E9439556B017C0129893A894B895C89CA01B901D2
:204160000E9439559B01AC01C701B6010E948A516B017C0129813A814B815C81CA01B9014E
:204180000E9439559B01AC01C701B6010E948B516B017C0120E030E040E850E4C301B201DD
:2041A0000E9439559B01AC01C701B6010E946B5203C060E070E0CB010E9451520E94D85278
:2041C0006D837E838F83988786169706A806B90620F48D829E82AF82B886C12CD12C760104
:2041E0008FB7F894F101E95BFF4F9081911128C02D813E814F815885D10154962D933D9368
:204200004D935C935797C20ED31EE41EF51EF101C08ED18EE28EF38E29853A854B855C855D
:20422000DB962D933D934D935C93DE97DF962D853E854F8558892D933D934D935C93139791
:204240008FBF68960FB6F894DEBF0FBECDBFDF91CF911F910F91FF90EF90DF90CF90BF9080
:20426000AF909F908F907F906F905F904F903F902F9008954F925F926F927F92AF92BF9234
:20428000CF92DF92EF92FF920F931F93CF93DF93EC017B01009709F458C06115710509F414
:2042A00054C0A9A4BAA40BA51CA59501A8016DA17EA18FA198A50E946452882309F445C0F0
:2042C0008EA981113AC0F70145A056A067A070A4A3019201B501C8010E94675418166CF58B
:2042E000A3019201C301B2010E9439556B017C0189A99AA9ABA9BCA9BC01CD0190589B01BA
:20430000AC010E948B512DA53EA54FA558A90E9439559B01AC01C701B6010E948A510E94B1
:20432000A6556B017C019B01AC01B501C8010E94645287FD02C056018701A501B8014DA305
:204340005EA36FA378A781E08DABDF91CF911F910F91FF90EF90DF90CF90BF90AF907F90F9
:204360006F905F904F900895DF92EF92FF920F931F93CF93DF93809179068FB7F894E09056
:2043800078068FBF8091790690E08E1991098F7099270497ECF01091790613501F7060E088
:2043A00070E000E0F12C38E4D32E1E1589F0111101C010E11150D19EE0011124C658D94FE7
:2043C000802F9F2D57DF602F7F2D0C2FFD2EEDCFDF91CF911F910F91FF90EF90DF90089595
:2043E0004F925F926F927F92AF92BF92CF92DF92EF92FF920F931F93CF93DF938C01EB01C2
:20440000009709F453C0FC0186A981114FC045A056A067A070A4ADA0BEA0CFA0D8A4950106
:20442000A601C301B2010E94645287FF3FC0A3019201C301B2010E9439552B013C01F80141
:2044400081A992A9A3A9B4A9BC01CD0190589B01AC010E948B51F80125A536A547A550A991
:204460000E9439559B01AC01C301B2010E948A510E94A6557B018C019B01AC01B501C60163
:204480000E94645287FF02C0750186019701A801B501C6010E946452882341F0A701B8012C
:2044A0004DA35EA36FA378A781E08DABDF91CF911F910F91FF90EF90DF90CF90BF90AF90B7
:2044C0007F906F905F904F900895EF92FF920F931F93CF93DF93F090780600E010E080E0FB
:2044E00090E048E4E42E20917906F21681F0EF9CE0011124C658D94FB80172DF81E08F0D77
:20450000803109F480E0F82EC8018E01ECCFB801DF91CF911F910F91FF90EF9061CF4F925C
:204520005F926F927F928F929F92AF92BF92CF92DF92EF92FF920F931F93CF93DF93909068
:204540007806C0E0D0E058E4852E892D992787FD90952091790630E082179307B9F1889E3C
:204560005001899EB00C1124C5018658994F5C01209729F18DA9811104C0F50185A98823BD
:20458000F1F0C9A0DAA0EBA0FCA0A7019601F50165A176A187A190A50E946B522B013C01B9
:2045A000A70196016DA17EA18FA198A50E946B52AB01BC0193018201CE018BDC1DAA93941F
:2045C000F0E19F1201C0912CE501BFCF2097E9F0C9A0DAA0EBA0FCA0A70196016DEC7CECCD
:2045E0008CE49DE30E946B524B015C01A70196016DA17EA18FA198A50E946B52AB01BC0122
:2046000095018401CE0165DC1DAADF91CF911F910F91FF90EF90DF90CF90BF90AF909F90EF
:204620008F907F906F905F904F9008959DDE4DDF76CF109279061092780680E1E8E6F6E0B0
:20464000DF011D928A95E9F7109258061092590610925A0610925B0610925C0610925D06BD
:2046600010925E0610925F06109260061092610610926206109263061092640610926506EE
:204680001092660610926706109254061092550610925606109257060895909178068091BA
:2046A00079069817D9F02091780630E048E480917906281789F0429FF0011124E658F94FC3
:2046C00080859185A285B385892B8A2B8B2B09F03F5F2F5F2F70EBCF311105C080910801A2
:2046E00081608093080108954F925F926F927F92AF92BF92CF92DF92EF92FF920F931F9372
:20470000CF93DF9300D01F92CDB7DEB729013A01E982FA820B831C8320915B0230915C0285
:2047200040915D0250915E020E9439550E940955609368067093690680936A0690936B06EE
:2047400020915F02309160024091610250916202C301B2010E9439550E94095560936C069F
:2047600070936D0680936E0690936F0620916302309164024091650250916602C801B70165
:204780000E9439550E9409556093700670937106809372069093730620916702309168029A
:2047A0004091690250916A02C601B5010E9439550E94095560937406709375068093760649
:2047C000909377061092EB0D1092EA0D1092E90D1092E80D1092E70D1092E60D10925406B0
:2047E000109255061092560610925706109258061092590610925A0610925B0610925C06B5
:2048000010925D0610925E0610925F06109260061092610610926206109263061092640654
:2048200010926506109266061092670681E0809353060F900F900F900F90DF91CF911F9185
:204840000F91FF90EF90DF90CF90BF90AF907F906F905F904F900895EFE6F0E0808182604D
:20486000808308952F923F924F925F926F927F928F929F92AF92BF92CF92DF92EF92FF925A
:204880000F931F93CF93DF93CDB7DEB7C357D1090FB6F894DEBF0FBECDBF6BA37CA38DA33F
:2048A0009EA329013A01EBA6FCA60DA71EA7C757DF4FE880C958D040EFAAC657DF4FF88065
:2048C000CA58D040F9AEC557DF4F0881CB58D0400DAFC457DF4F1881CC58D04022961FAFA1
:2048E0002297E09079060E2D0F5F24960FAF2497003119F424961FAE24972496EFAC2497A4
:204900002E2C332427FC30948091780690E08215930509F074C00E94C70B0E94CC4B0091E6
:20492000710B1091720B2091730B3091740B0FA718AB29AB3AABE090750BF090760B0091BA
:20494000770B1091780B6E197F09800B910B2FA538A949A95AA92617370748075907F0F4C3
:20496000232B242B252BD1F010921E0410921D042C981092180410921704809102018F7DA3
:20498000809302015F9A8A9A80910801816080930801129A60E08CE00E94B34C0E94CC4B1B
:2049A000E0906D0BF0906E0B00916F0B1091700BEFA6F8AA09AB1AABE090750BF090760B4E
:2049C0000091770B1091780B6E197F09800B910B0FA518A929A93AA9061717072807390796
:2049E00060F4012B022B032B41F05F9A8A9A80910801816080930801129A4FDE85CF209199
:204A00005B0230915C0240915D0250915E026BA17CA18DA19EA10E9439550E9409556C96E1
:204A20006CAF7DAF8EAF9FAF6C9720915F02309160024091610250916202C301B2010E94DA
:204A400039550E940955A0966CAF7DAF8EAF9FAFA097209163023091640240916502509133
:204A600066026BA57CA58DA59EA50E9439550E940955A4966CAF7DAF8EAF9FAFA497209100
:204A80006702309168024091690250916A02C601B5010E9439550E940955A8966CAF7DAFC7
:204AA0008EAF9FAFA8978091790618E4819F1001112491012658394F1901F901E95BFF4FFC
:204AC0001082E0906806F090690600916A0610916B06EBA2FCA20DA31EA36C964CAC5DACC5
:204AE0006EAC7FAC6C974E185F08600A710A77FE08C07094609450944094411C511C611C88
:204B0000711CD1014D925D926D927C921397E0906C06F0906D0600916E0610916F06EFA230
:204B2000F8A609A71AA7A0968CAC9DACAEACBFACA0978E189F08A00AB10AB7FE08C0B09440
:204B4000A09490948094811C911CA11CB11CD10114968D929D92AD92BC921797E09070062A
:204B6000F09071060091720610917306EFA6F8AA09AB1AABA496CCACDDACEEACFFACA497B0
:204B80000FA518A929A93AA9C01AD10AE20AF30AF7FE08C0F094E094D094C094C11CD11C16
:204BA000E11CF11CD1011896CD92DD92ED92FC921B970091740610917506209176063091C9
:204BC00077060BAB1CAB2DAB3EABA0911702B0911802A8962CAD3DAD4EAD5FADA8976BA91A
:204BE0007CA98DA99EA9261B370B480B590B57FF07C050954095309521953F4F4F4F5F4FAD
:204C00000E948B5624E630E040E050E00E944456D1011C962D933D934D935C931F97C814F6
:204C2000D904EA04FB0414F475016401C216D306E406F50614F469017A01D301C2014C144D
:204C40005D046E047F0414F4D701C601F101808B918BA28BB38B0697A105B10508F461C7B6
:204C60006C96ECACFDAC0EAD1FAD6C976BA17CA18DA19EA1E616F7060807190714F010A2F3
:204C800002C081E080A3A096ECACFDAC0EAD1FADA0976FA178A589A59AA5E616F7060807F7
:204CA00019073CF4D10190968C919097826090968C93A496ECACFDAC0EAD1FADA4976FA5F0
:204CC00078A989A99AA9E616F706080719073CF4D10190968C919097846090968C93A89643
:204CE000ECACFDAC0EAD1FADA8976BA97CA98DA99EA9E616F70608071907BCF4D101909627
:204D00008C919097886090968C9380E090E0A8ECB2E480930E0290930F02A0931002B09349
:204D2000110281E0809352061CC080915206882341F012161306140615069CF41092520673
:204D400010C08091570290915802A0915902B0915A0280930E0290930F02A0931002B09396
:204D6000110245284628472809F05F98F10184819581A681B781892B8A2B8B2B09F08A9840
:204D8000F10180859185A285B385892B8A2B8B2B29F0809108018E7F80930801F101848531
:204DA0009585A685B785892B8A2B8B2B09F01298D1011C96ED90FD900D911C911F97289663
:204DC000ECAEFDAE0EAF1FAF2897EF28E02AE12AF9F4E0902F0EEBA2F090300EFBA6009101
:204DE000310E1091320E9701A8016FA979AD8DAD22969FAD22970E94645287FD14C00FA9B5
:204E00000BA319AD1BA70DAD22961FAD22970BC0E0902B0EEBA2F0902C0EFBA600912D0E3D
:204E200010912E0EE0CF9091790680917806E92EF12CE81AF10897012F70332723963FAF50
:204E40002EAF23978091680690916906A0916A06B0916B066C962CAD3DAD4EAD5FAD6C978A
:204E6000281B390B4A0B5B0BCA01B9010E94065320915B0230915C0240915D0250915E02D2
:204E80000E946B522B013C01698B7A8B8B8B9C8BA0966CAD7DAD8EAD9FADA0972FA138A530
:204EA00049A55AA5621B730B840B950B0E94065320915F0230916002409161025091620232
:204EC0000E946B524B015C016D8B7E8B8F8B988FA4966CAD7DAD8EAD9FADA4972FA538A994
:204EE00049A95AA9621B730B840B950B0E94065320916302309164024091650250916602DA
:204F00000E946B526B017C01698F7A8F8B8F9C8F409117025091180258A74FA3A8966CADD6
:204F20007DAD8EAD9FADA8972BA93CA94DA95EA9621B730B840B950B0E940653209167028C
:204F4000309168024091690250916A020E946B526FA778AB89AB9AAB4FA158A5BA01882735
:204F600077FD8095982F0E9406539B01AC016FA578A989A99AA90E94395520E030E048EC7F
:204F800052E40E946B5269AF7AAF8BAF9CAF6D8F7E8F8F8F98A3D1016D917D918D919C912B
:204FA000139721966CAF7DAF8EAF9FAF21976630710581059105ECF414968D919D910D906B
:204FC000BC91A02D0697A105B1059CF4F10180859185A285B3850697A105B10554F489AD4B
:204FE0009AADABADBCADBF7785A796A7A7A7B0AB25C0C301B2010E94E4552B013C01C501FB
:20500000B4010E94E4559B01AC01C301B2010E948B514B015C01C701B6010E94E4559B0123
:20502000AC01C501B4010E948B510E94A655D1019D966D937D938D939C93D097D1019D965D
:205040002D913D914D915C91D09768962CAF3DAF4EAF5FAF689760E070E080E89FE30E94A7
:205060006B529B01AC016BA17BA5C8010E9439556B017C019B01AC0168966CAD7DAD8EAD57
:205080009FAD68970E9439552C966CAF7DAF8EAF9FAF2C97F10161A372A383A394A36089ED
:2050A0007189828993890E9404536BAB7CAB8DAB9EABA70196010E9439550E9451520E94C2
:2050C000D35260966CAF7DAF8EAF9FAF6097D101D7966D937D938D939C93DA978E010F5EE1
:2050E0001F4F18AF0FAB0BE412E064961FAF0EAF64978E01035E1F4F1AA309A30C51110922
:2051000062961FAF0EAF62971BA21BA610E81FA30FE30FA7AFA9B8AD6D917D918D919D911E
:20512000B8AFAFABA70196010E9439556296EEADFFAD629761937193819391936296FFAF31
:20514000EEAF62972B013C01E89477F86496AEADBFAD64978D909D90AD90BD906496BFAF6D
:20516000AEAF6497A5019401C301B2010E9467541816D4F4A3019201C501B4010E946B52C1
:20518000162F072FB82EA92E262F372F482F592F6BA17BA58FA19FA50E94645287FD04C0DD
:2051A0001BA30BA7BFA2AFA60FA918AD29A13AA10217130709F0AECFA701960169AD7AAD82
:2051C0008BAD9CAD0E9439556D877E878F87988B4B015C01E894B7F8C0900E02D0900F0247
:2051E000E0901002F0901102A7019601C501B4010E9467541816D4F4A5019401C701B601D3
:205200000E946B52162F072FF82EE92E262F372F482F592F6BA17BA58FA19FA50E946452C5
:2052200087FD04C01BA30BA7FFA2EFA620E030E040E85FE36BA17BA58FA19FA50E9464520E
:2052400087FF43C07E0131E1E30EF11C8E010F5F1F4F2BA13BA54FA15FA5D8016D917D9146
:205260008D919C910E943955F80161937193819391938F01EE15FF0561F72BA13BA54FA1FF
:205280005FA52C966CAD7DAD8EAD9FAD2C970E943955D10191966D937D938D939C93949708
:2052A00060966CAD7DAD8EAD9FAD60970E9406532BA13BA54FA15FA50E9439550E94D352A5
:2052C000F10167AB70AF81AF92AF68962CAD3DAD4EAD5FAD68976BA97CA98DA99EA90E941B
:2052E0006B526B017C0121960CAD1DAD2EAD3FAD2197012B022B032B59F5F101848195816D
:20530000A681B781892B8A2B8B2B11F580859185A285B385892B8A2B8B2BD1F420913702C1
:20532000309138024091390250913A02C701B6010E9439550E94515281010D5B1F4F0E945B
:20534000D352D8016D937D938D939C931397F8C020913B0230913C0240913D0250913E0270
:20536000C701B6010E9439550E9451520E94D35281010D5B1F4FF80160837183828393832F
:2053800040901B0E50901C0E60901D0E70901E0E0E9406534B015C0121966CAD7DAD8EADEA
:2053A0009FAD21970E9406539B01AC01C501B4010E9439552BA93CA94DA95EA90E946B52E5
:2053C0004B015C01C301B2010E9404539B01AC01C501B4010E946754181634F4D8014D9285
:2053E0005D926D927C92139740901F0E5090200E6090210E7090220EF801608171818281DE
:2054000093810E9406534B015C01D10114966D917D918D919C9117970E9406539B01AC010F
:20542000C501B4010E9439552BA93CA94DA95EA90E946B524B015C01C301B2010E94045393
:205440009B01AC01C501B4010E94675418162CF4F80140825182628273824090270E509091
:20546000280E6090290E70902A0E81010D5B1F4FD8016D917D918D919C910E9406534B01C8
:205480005C0128966CAD7DAD8EAD9FAD28970E9406539B01AC01C501B4010E9439552BA9A5
:2054A0003CA94DA95EA90E946B524B015C01C301B2010E9404539B01AC01C501B4010E942C
:2054C000675418162CF4F80140825182628273824090230E5090240E6090250E7090260EF2
:2054E000D8016D917D918D919C910E9406534B015C01F10160857185828593850E940653F1
:205500009B01AC01C501B4010E9439552BA93CA94DA95EA90E946B524B015C01C301B20162
:205520000E9404539B01AC01C501B4010E946754181634F4D8014D925D926D927C9213979D
:20554000F101ED5BFF4F60817181828193810E9406534B015C01A70196010E946B52AC9655
:205560006CAF7DAF8EAF9FAFAC97F10161AB72AB83AB94AB2DEB37E346E051E4C501B40186
:205580000E9439550E94D352D1015C966D937D938D939C935F97C0903302D0903402E09070
:2055A0003502F090360220E030E040E05FE3C701B6010E9439556BA37BA78FA39FA70985A5
:2055C0001A852B853C85E0960CAF1DAF2EAF3FAFE09720912F0230913002409131025091C2
:2055E000320228962CAF3DAF4EAF5FAF289720E030E040E05FE328966CAD7DAD8EAD9FAD2E
:2056000028970E943955162F072FB82EA92EE0966CAD7DAD8EAD9FADE0979F77212F302FE7
:205620004B2D5A2D0E946754181684F4212F302F4B2D5A2D6BA17BA58FA19FA50E946452C2
:2056400087FD04C01BA30BA7BFA2AFA64D855E856F857889E4964CAF5DAF6EAF7FAFE497EB
:2056600060912B0270912C0280912D0290912E022C966CAF7DAF8EAF9FAF2C9720E030E0E5
:2056800040E05FE30E943955162F072FB82EA92EE4966CAD7DAD8EAD9FADE4979F77212F1B
:2056A000302F4B2D5A2D0E946754181684F4212F302F4B2D5A2D6BA17BA58FA19FA50E9499
:2056C000645287FD04C01BA30BA7BFA2AFA680915306813051F4109253060DEC0BA31CEC9C
:2056E0001BA70CEC0FA31DE31FA7D1019196BC91BBABF101F2A1FFABD1019396BC91B9AFED
:20570000F101F4A1FDAF2BA93FA94B2F5F2F6BA17BA58FA19FA50E94645287FD08C00BA99A
:205720000BA31FA91BA709AD0FA31DAD1FA723960EAD1FAD2397023011050CF413C1109182
:20574000540622961FAF2297009155062D960FAF2D971091560661961FAF619700915706D7
:2057600063960FAF639727E137EB41ED58E322966FAD22972D967FAD2D97812F902F0E9494
:20578000675418160CF0EEC0209158063091590640915A0650915B0669817A818B819C81C6
:2057A0000E948A512B013C0120915C0630915D0640915E0650915F066D817E818F81988537
:2057C0000E948A514B015C01A3019201C301B2010E9439552B013C01A5019401C501B401A6
:2057E0000E9439559B01AC01C301B2010E948B510E94A6554B015C01A70196010E94675459
:2058000018164CF4A5019401C701B6010E946B524B015C0106C0812C912C60E8A62E7FE3AA
:20582000B72E20916006309161064091620650916306E0966CAD7DAD8EAD9FADE0970E9468
:205840008A516B017C01E894F7F828962CAD3DAD4EAD5FAD2897C701B6010E9467541816C8
:20586000E4F4A701960128966CAD7DAD8EAD9FAD28970E946B52162F072FF82EE92E262F5E
:20588000372F482F592FB401C5010E94645287FD04C0812E902EAF2CBE2C2091640630917A
:2058A00065064091660650916706E4966CAD7DAD8EAD9FADE4970E948A516B017C01E89451
:2058C000F7F82C962CAD3DAD4EAD5FAD2C97C701B6010E9467541816E4F4A70196012C96A7
:2058E0006CAD7DAD8EAD9FAD2C970E946B52162F072FF82EE92E262F372F482F592FB40195
:20590000C5010E94645287FD04C0812E902EAF2CBE2C9401A5016BA97FA989AD9DAD0E9456
:2059200039555B016C019B01AC0122966FAD22972D967FAD2D9761968FAD619763969FAD17
:2059400063970E94645287FF11C02296AFAC22972D96BFAC2D976196CFAC61976396DFACF2
:20596000639704C0ABA0BBA4CFA0DFA4C501D601F10181A792A7A3A7B4A7AC966CAD7DADB3
:205980008EAD9FADAC9790589B01AC010E948B5168962CAD3DAD4EAD5FAD68970E94395597
:2059A0009B01AC016BE077ED83E29BE30E948A510E94A6558B01F82EE92E9B01482F592F8E
:2059C000B501C6010E94645287FF03C04501560103C04801AF2CBE2CC401D501F10185A386
:2059E00096A3A7A3B0A798014F2D5E2D6BA97FA989AD9DAD0E94645218162CF081E0D1019C
:205A0000D6968C9302C0F10116AA81E0D101D5968C9380E1FE013196A8E5B6E001900D9250
:205A20008A95E1F78BA99FA9A9ADBDAD8093540690935506A0935606B09357069C01AD01CE
:205A40006BA17BA58FA19FA50E946B526B017C012BA93FA949AD5DADB401C5010E946B52C8
:205A6000AB01BC0197018601C1010E94691F2496EFAC2497E09279066C96ECACFDAC0EADB3
:205A80001FAD6C97E0926806F092690600936A0610936B06A096ECACFDAC0EAD1FADA0971A
:205AA000E0926C06F0926D0600936E0610936F06A496ECACFDAC0EAD1FADA497E0927006C9
:205AC000F09271060093720610937306A896ECACFDAC0EAD1FADA897E0927406F092750678
:205AE00000937606109377060E941623CD58DF4F0FB6F894DEBF0FBECDBFDF91CF911F9182
:205B00000F91FF90EF90DF90CF90BF90AF909F908F907F906F905F904F903F902F900C9423
:205B20002C24CD58DF4F0FB6F894DEBF0FBECDBFDF91CF911F910F91FF90EF90DF90CF907F
:205B4000BF90AF909F908F907F906F905F904F903F902F9008954F925F926F927F92AF923D
:205B6000BF92CF92DF92EF92FF920F931F93CF93DF93CDB7DEB728970FB6F894DEBF0FBE35
:205B8000CDBF8091D80D811154C020E030E049E353E46091080E7091090E80910A0E909101
:205BA0000B0E0E946754181664F480E090E0A9E3B3E48093080E9093090EA0930A0EB09305
:205BC0000B0E20E030E040E253E460910C0E70910D0E80910E0E90910F0E0E946754181626
:205BE00064F480E090E0A0E2B3E480930C0E90930D0EA0930E0EB0930F0E20E030E046E113
:205C000053E46091100E7091110E8091120E9091130E0E946754181664F480E090E0A6E171
:205C2000B3E48093100E9093110EA093120EB093130EA090140EB090150EC090160ED0901A
:205C4000170E2091040E3091050E4091060E5091070EC601B5010E9467544091140250910B
:205C60001502181644F4A0911902B0911A029A010E94665605C024E630E0DA010E947B56D8
:205C80002091100E3091110E4091120E5091130E29833A834B835C8340900C0E50900D0E67
:205CA00060900E0E70900F0E2091080E3091090E40910A0E50910B0E2D833E834F83588717
:205CC0000E94065320E030E84BEB55E40E946B529F938F937F936F93E980FA800B811C816F
:205CE000A30192016D817E818F8198850E9432248091080E9091090EA0910A0EB0910B0E59
:205D00008093F80D9093F90DA093FA0DB093FB0D80910C0E90910D0EA0910E0EB0910F0EAB
:205D20008093FC0D9093FD0DA093FE0DB093FF0D8091100E9091110EA091120EB091130E6B
:205D40008093000E9093010EA093020EB093030E8091140E9091150EA091160EB091170E27
:205D60008093040E9093050EA093060EB093070E0F900F900F900F9028960FB6F894DEBF01
:205D80000FBECDBFDF91CF911F910F91FF90EF90DF90CF90BF90AF907F906F905F904F9044
:205DA00008951F920F920FB60F9211240BB60F920F931F932F933F934F935F936F937F9327
:205DC0008F939F93AF93BF93CF93DF93EF93FF938091500690915106892B09F04CC1909139
:205DE000790680917806981771F0C091780628E4C29FE0011124C658D94FFE01E95BFF4F5C
:205E000081E0808302C0C0E0D0E0D0935106C0935006209709F429C1109233061092340654
:205E200010923506109236068BAD9CAD9093320680933106813325E7920728F481322EE447
:205E4000920748F002C080E395E7969587959695879524E007C0813127E2920730F09695D8
:205E6000879522E02093300608C021E0209330068032910510F480E290E08097811528E096
:205E80009207D0F0292F3327220F331F220F331F2257364FF901329665917491AA27879F3F
:205EA000A001869F410D5A1F06944A1F5A1F1124F901259134911DC09C01369527952C7F83
:205EC00022573A4FF901659174912E5F3F4FF9012591349187709927289FA001299F500DF7
:205EE000389F500D1124E3E056954795EA95E1F79B01241B350B2436310510F424E630E08F
:205F0000C901A0E0B0E08093370690933806A0933906B0933A0630938900209388008FA942
:205F200098AD813325E7920728F481322EE4920748F002C080E395E79695879596958795E2
:205F400024E007C0813127E2920730F09695879522E02093300608C021E02093300680326C
:205F6000910510F480E290E08097811528E09207E0F0292F3327220F331F220F331F225766
:205F8000364FF901329665917491AA27879FA001869F410D5A1F06944A1F5A1F1124F90190
:205FA00085919491841B950B1FC09C01369527952C7F22573A4FF901459154912E5F3F4FE7
:205FC000F9016591749187709927689F9001699F300D789F300D1124F3E036952795FA95C6
:205FE000E1F7CA01821B930B8436910510F484E690E090932F0680932E0688899989AA8990
:20600000BB89B695A79597958795B095A095909581959F4FAF4FBF4F80934B0690934C06E5
:20602000A0934D06B0934E068093470690934806A0934906B0934A06809343069093440694
:20604000A0934506B093460680933F0690934006A0934106B093420610923B0610923C06A6
:2060600010923D0610923E0606C080ED97E09093890080938800E0915006F09151063097FE
:2060800009F4FCC380A180934F0680FF1DC0899A659902C080E013C080912A06882371F0FC
:2060A000E0915006F091510680819181A281B381181619061A061B060CF49EC381E01092E5
:2060C0002D0680932A0603C0899810922D0680914F0681FF1FC08F9A8091030181FD02C04E
:2060E00080E013C080912906882371F0E0915006F091510684819581A681B78118161906BB
:206100001A061B060CF48EC381E010922C068093290603C08F9810922C0680914F0682FFD1
:2061200021C080910B018D7F80930B014B9902C080E013C080912806882371F0E09150064B
:20614000F091510680859185A285B385181619061A061B060CF47CC381E010922B068093D9
:20616000280607C080910B01826080930B0110922B0680914F0683FF02C0169801C0169A70
:2061800020E08091300628170CF062C1E0915006F091510680914B0690914C06A0914D0662
:2061A000B0914E064081518162817381840F951FA61FB71F80934B0690934C06A0934D069F
:2061C000B0934E06181619061A061B067CF530912D068091EA0D9091EB0D311106C0009775
:2061E00011F0019703C0889A05C001969093EB0D8093EA0DE0915006F091510680914B069F
:2062000090914C06A0914D06B0914E064089518962897389841B950BA60BB70B80934B0652
:2062200090934C06A0934D06B0934E06E0915006F09151068091470690914806A0914906E0
:20624000B0914A064481558166817781840F951FA61FB71F8093470690934806A0934906FE
:20626000B0934A06181619061A061B067CF530912C068091E80D9091E90D311106C00097DD
:2062800011F0019703C08E9A05C001969093E90D8093E80DE0915006F09151068091470600
:2062A00090914806A0914906B0914A064089518962897389841B950BA60BB70B80934706C2
:2062C00090934806A0934906B0934A06E0915006F09151068091430690914406A091450658
:2062E000B09146064085518562857385840F951FA61FB71F8093430690934406A09345066E
:20630000B0934606181619061A061B069CF530912B068091E60D9091E70D31110AC0009721
:2063200011F0019707C080910B01886080930B0105C001969093E70D8093E60DE091500699
:20634000F09151068091430690914406A0914506B09146064089518962897389841B950BCE
:20636000A60BB70B8093430690934406A0934506B0934606E0915006F091510680913F06DF
:2063800090914006A0914106B09142064485558566857785840F951FA61FB71F80933F06D1
:2063A00090934006A0934106B0934206181619061A061B06ECF4149AE0915006F0915106B4
:2063C00080913F0690914006A0914106B09142064089518962897389841B950BA60BB70BC3
:2063E00080933F0690934006A0934106B093420680913B0690913C06A0913D06B0913E0629
:206400000196A11DB11D80933B0690933C06A0933D06B0933E0688988E9880910B01877F3A
:2064200080930B011498E0915006F091510640913B0650913C0660913D0670913E0680893B
:206440009189A289B389481759076A077B07B0F080913B0690913C06A0913D06B0913E06BB
:20646000C0915006D09151064C895D896E897F89481759076A077B0718F4C6C02F5F81CEE2
:2064800040913706509138066091390670913A060C8D1D8D2E8D3F8DAA27419FB12D529F14
:2064A000C001629F900D619F800D911D429FB00D811D9A1F519FB00D811D9A1F609FB00D8D
:2064C000811D9A1F509FB10D8A1F9A1FB6958A1F9A1F11244BAD5CAD480F591F5093320689
:2064E000409331068FA998ADA9ADBAAD60E070E084179507A607B70724F4909332068093A0
:2065000031068091310690913206813325E7920728F481322EE4920748F002C080E395E7F7
:20652000969587959695879524E007C0813127E2920730F09695879522E02093300608C094
:2065400021E0209330068032910510F480E290E08097811528E09207D0F0292F3327220F42
:20656000331F220F331F2257364FF901329665917491AA27879FA001869F410D5A1F06946D
:206580004A1F5A1F1124F901259134911DC09C01369527952C7F22573A4FF90165917491CC
:2065A0002E5F3F4FF9012591349187709927289FA001299F500D389F500D112403E05695D0
:2065C00047950A95E1F79B01241B350B2436310510F424E630E03093890020938800809107
:2065E000370690913806A0913906B0913A06820F931FA11DB11D8093370690933806A0935B
:206600003906B0933A06D0C0488D598D6A8D7B8D481759076A077B0708F0BEC0409133063C
:206620005091340660913506709136060C8D1D8D2E8D3F8DAA27419FB12D529FC001629FCA
:20664000900D619F800D911D429FB00D811D9A1F519FB00D811D9A1F609FB00D811D9A1F56
:20666000509FB10D8A1F9A1FB6958A1F9A1F1124E0913106F0913206EF96E817F90718F438
:20668000E881F98102C0E81BF90B88819981AA81BB818F0120E030E0081719072A073B0772
:2066A0000CF4FC01E13385E7F80728F4E1322EE4F20748F002C0E0E3F5E7F695E795F695F9
:2066C000E79584E007C0E13187E2F80730F0F695E79582E08093300608C081E08093300655
:2066E000E032F10510F4E0E2F0E09F0120523109211588E03807E0F0832F9927880F991F42
:20670000880F991F8257964FFC01329605911491AA27219FE001209FC10DDA1F0694CA1FF1
:20672000DA1F1124FC01859194918C1B9D0B1EC0C901969587958C7F82579A4FFC01C59195
:20674000D4910296FC018591949127703327829FD001839FB00D929FB00D1124F3E0B69501
:20676000A795FA95E1F7CE018A1B9B0B8436910510F484E690E09093890080938800480F90
:20678000591F611D711D4093330650933406609335067093360608C080912E0690912F067C
:2067A0009093890080938800E0915006F091510640913B0650913C0660913D0670913E0645
:2067C00080899189A289B389481759076A077B0708F454C0109251061092500690917906DC
:2067E00080917806981709F449C0809178068F5F8F708093780642C08091D80D811104C0FA
:2068000081E080932D065DCC80899189A289B38980933B0690933C06A0933D06B0933E0668
:2068200081E04FCC8091D80D811104C081E080932C066DCC80899189A289B38980933B06D3
:2068400090933C06A0933D06B0933E0681E05FCC8091D80D811104C081E080932B067FCC0E
:2068600080899189A289B38980933B0690933C06A0933D06B0933E0681E071CCFF91EF912A
:20688000DF91CF91BF91AF919F918F917F916F915F914F913F912F911F910F910F900BBE20
:2068A0000F900FBE0F901F901895A1E8B0E08C918F7E8C938C9188608C93E0E8F0E0808152
:2068C0008D7F808380818E7F808380818F73808380818F7C80838C91887F82608C9380E0FE
:2068E00090E490938900809388001092850010928400EFE6F0E080818260808381E0809391
:20690000120278940895CF92DF92EF92FF920F931F93CF93DF9300D01F92CDB7DEB726E00E
:2069200040E052EC61E070E080E49EE00E94304E88EF94E00E94081E87EE94E00E94081E02
